:101F6D00E4F593F594F591F592F595F596F5B1F5B2
:101F7D00B2F5B3F5B4F5C9F5CAF5CBF5CCF5E1F588
:021F8D00E2224E
:101FE000121F6D121FC6D2AC122033D2A9D2AF126B
:091FF0002083122062121E7322EC
:101F26002F00200D0A0049415031355734313341D5
:101F36005320445333323331534E20546573742E39
:041F4600200D0A0060
:1018D10090001AEBF0A3EAF0A3E9F090001AE0FB04
:1018E100A3E0FAA3E0F990000A1202522430FF1299
:1018F1001B027BFF7A1F7926121DD890001AE0FB8C
:10190100A3E0FAA3E0F9900008120252FF121B02B1
:101911007BFF7A1F7926121DD890001AE0FBA3E005
:10192100FAA3E0F9900006120252FF121B027BFF9C
:101931007A1F7926121DD890001AE0FBA3E0FAA3C2
:10194100E0F9900004120252FF121B027BFF7A1F82
:101951007926121DD890001AE0FBA3E0FAA3E0F962
:10196100900002120252FF121B027BFF7A1F79269E
:10197100121DD890001AE0FBA3E0FAA3E0F91202CD
:1019810027FF121B027BFF7A1F7926121DD89000B8
:101991001AE0FBA3E0FAA3E0F990000C120252FF57
:0D19A100121B027BFF7A1F7928121DD8222D
:10145D00E4900000F07B0190001D04F0A37400F0F7
:10146D00A37414F0A3EBF0A37400F0A37415F0A310
:10147D00EBF0A37400F0A37416F0A3EBF0A37400CB
:10148D00F0A37417F0A3EBF0A37400F0A37418F09D
:10149D00A3EBF0A37400F0A37419F07A0079131282
:1014AD001A67900013E024D0FEE4340790000BF08F
:1014BD00A3CEF0900014E0FF900009E4F0A3EFF04C
:1014CD00900015E0FF900007E4F0A3EFF0900016F8
:1014DD00E0FF900005E4F0A3EFF0900017E0FF901F
:1014ED000003E4F0A3EFF0900018E0FF900001E49A
:1014FD00F0A3EFF0900019E0FF90000DE4F0A3EFE2
:10150D00F07B017A0079011218D11220987B017AB3
:10151D00007901120DC6EF4E60030215AA12208C40
:10152D007B017A0079011218D190000BE0A3E02421
:10153D0030900013F0900009E0A3E0900014F090BB
:10154D000007E0A3E0900015F0900005E0A3E09007
:10155D000016F0900003E0A3E0900017F09000015A
:10156D00E0A3E0900018F090000DE0A3E0900019CA
:10157D00F0900013E0FFA3E0FDA3E0FBA3E09000DB
:10158D001DF0900017E090001EF0900018E0900004
:10159D001FF0900019E0900020F0121CF07F051252
:0815AD00000E12208F02151A36
:0115B5002213
:10200D00121FE07BFF7A1F792C121DD812145DE48C
:03201D00FEFF22A1
:101E40004200D500004200DB00004100D700420004
:071E5000D900004100D80099
:10203300538E7F5389F0758A0C758CFEC28DD28CBA
:01204300227A
:102020009000D5EEF0A3EFF09000D5E07002A3E0B1
:0320300070F62225
:02000E00AD073C
:10001000E4FCECC39D500A7FE87E031220200C8094
:01002000F1EE
:0100210022BC
:03000B000219AE29
:1019AE00C0E0C0F0C083C082C0D075D000C000C0FF
:1019BE0001C002C003C004C005C006C0079000D518
:1019CE00E07002A3E0600E9000D6E024FFF09000DD
:1019DE00D5E034FFF09000DBE0B40311A3E0B4E8EF
:1019EE000C9000DBE4F0A3F09000D704F09000DC44
:1019FE00E004F070069000DBE004F09000D9E0FE09
:101A0E00A3E0FFE4FCFD7B607AEAF9F8C3120372EF
:101A1E0070069000D9F0A3F09000D9E0FEA3E0FF8D
:101A2E007C007D0A120186ED4C70059000D804F002
:101A3E009000DAE004F070069000D9E004F0D007D0
:101A4E00D006D005D004D003D002D001D000D0D023
:091A5E00D082D083D0F0D0E03238
:0420880030303000C4
:101FC600759850438E01538EFB75D7F375D6FFE493
:0A1FD6009000DDF0D299438E102236
:0B206E009000DDE070FA04F08F992272
:101DD80090007DEBF0A3EAF0A3E9F090007DE0FB32
:101DE800A3E0FAA3E0F912011C601890007DE0A3BB
:101DF800E475F001120211A9F0FA12011CFF122079
:041E08006E80D822EE
:051B0200900078EFF0F7
:101B070078797C007D017BFF7A2079887E007F04CD
:101B17001200F6900078E0FF75F00A8490007BE5EC
:101B2700F0F0EF75F0648475F064A4FF900078E03E
:101B3700FB7A00C39FFFEA95F0FE7C007D0A120145
:101B47008690007AEFF0A3E0FFC3EB9FFDEA9400D5
:101B5700FC90007AE075F00AA4FFC3ED9FFFEC95B7
:101B6700F0FE7C007D64120186900079EFF0900012
:101B77007BE02430F090007AE02430F0900079E0A8
:0C1B87002430F07B017A007979121DD81F
:011B9300222F
:03002300021F8F2A
:101F8F00C0E0C083C082309802C298309907C299CE
:0C1F9F009000DDE4F0D082D083D0E0326E
:05208300D2B7D2B62225
:03208C00C2B722B6
:03208F00D2B722A3
:03209200C2B622B1
:03209500D2B6229E
:101D4D0030202009090020200D0A004F6B2E200D98
:101D5D000A004572722E200D0A00636865636B20C0
:101D6D006572722E200D0A00542E200D0A000000FF
:101D7D000000000000000000000000000000000056
:101D8D000000000000000000000000000000000046
:061D9D0000000000000040
:0C206200C2B443B11053B2EF12209B2215
:03209800C2B522AC
:03209B00D2B52299
:101C2000E4900073F0A3F020B42D7F0A7E00122010
:101C300020C3900074E094C8900073E064809480A6
:101C400040057EFF7FFF22900074E004F070069054
:101C50000073E004F080D0E4900073F0A3F030B49F
:101C60002D7F0A7E00122020C3900074E0946490BF
:101C70000073E06480948040057EFF7FFF22900027
:101C800074E004F07006900073E004F080D0E4FE8D
:011C9000FF54
:011C91002230
:1017D700E4900073F0A3F0A3F0A3F0A3F0900077D8
:1017E700E0C394647480948050409000D8E0640112
:1017F70070EBA2B4FE33FF6013900074E004F07046
:1018070006900073E004F01220928011900076E0B9
:1018170004F07006900075E004F0122095900077B0
:10182700E004F0E49000D8F080B3900075E0A3E006
:10183700FF121B027BFF7A1D794D121DD890007590
:10184700E0FEA3E0FFC39455EE9400400DEF945FD4
:10185700EE940050057E007F3022900075E0FEA3D5
:10186700E0FFC3944BEE9400400DEF9455EE9400C7
:1018770050057E007F3122900075E0FEA3E0FFC394
:101887009441EE9400400DEF944BEE940050057E8A
:10189700007F3222900075E0FEA3E0FFC39437EE8D
:1018A7009400400DEF9441EE940050057E007F3385
:1018B70022C3900076E0945F900075E094004005A5
:0918C7007E007F50227EFF7FFFAE
:0118D00022F5
:101C9200900073EEF0A3EFF012206E7BFF7A1D79B5
:101CA20053121DD8900073E0FCA3E0FD64304C7029
:101CB20003FEFF22ED64314C7004FE7F012290008E
:101CC20073E0FCA3E0FD64324C7004FE7F0222ED5F
:101CD20064334C7004FE7F0322900073E07004A30F
:0E1CE200E064507004FE7F04227EFF7FFF222C
:0B12DF00900073EBF0A3EAF0A3E9F02D
:1012EA00E4900077F0A3F0A304F0900078E0FEA366
:1012FA00E0FFC3940AEE648094805066900073E025
:10130A00FBA3E0FAA3E0F98F828E831201359000E5
:10131A0076F0E490007AF0A3F090007AE0FEA3E081
:10132A00FFC39408EE648094805027900076E0FE14
:10133A00A807088002C313D8FC30E006900077E0C3
:10134A0004F090007BE004F0700690007AE004F06C
:10135A0080C7900079E004F07006900078E004F00D
:10136A008088900077E05401FFF0900073E0FBA3BF
:10137A00E0FAA3E0F990000A120135FE6F6018EE58
:10138A00FF900077E02402FDE433FCED6F7001EC7E
:10139A0060057EFF7FFF22E4900077F0A3F0A3743C
:1013AA000BF0900078E0FEA3E0FFC39413EE648094
:1013BA0094805066900073E0FBA3E0FAA3E0F98FF3
:1013CA00828E83120135900076F0E490007AF0A3C1
:1013DA00F090007AE0FEA3E0FFC39408EE648094E4
:1013EA00805027900076E0FEA807088002C313D831
:1013FA00FC30E006900077E004F090007BE004F017
:10140A00700690007AE004F080C7900079E004F05A
:10141A007006900078E004F08088900077E054012C
:10142A00FFF0900073E0FBA3E0FAA3E0F990001349
:10143A00120135FE6F6018EEFF900077E02402FD7E
:10144A00E433FCED6F7001EC60057EFF7FFF22E460
:02145A00FEFF93
:01145C00226D
:10109900900073EBF0A3EAF0A3E9F0900073E0FB92
:1010A900A3E0FAA3E0F990000112013575F014A448
:1010B900FF900076E0FBA3E0FAA3E0F9E5F08FF0FA
:1010C9001202D7900073E0FBA3E0FAA3E0F99000C5
:1010D9000512013575F004A4FF9000061201357C54
:1010E900002FFFEC35F0FEEF7802C333CE33CED8B4
:1010F900F9FF9000071201357C002FFFEC3EFE90AE
:101109000076E0FBA3E0FAA3E0F9900002EE8FF08D
:101119001202F6900073E0FBA3E0FAA3E0F9900055
:101129000312013575F004A4FF9000041201352F54
:10113900FFEC35F0FE900076E0FBA3E0FAA3E0F9BE
:10114900900004EE8FF01202F6900073E0FBA3E02A
:10115900FAA3E0F990000812013575F004A4FF9094
:1011690000091201352FFFEC35F0FE900076E0FB07
:10117900A3E0FAA3E0F990000CEE8FF01202F690CA
:101189000073E0FBA3E0FAA3E0F990000A1201352D
:10119900FF64026005EF64037021900076E0FBA311
:1011A900E0FAA3E0F9900004120252640C45F060E1
:1011B9000A900004E475F00C12028A900073E0FBB7
:1011C900A3E0FAA3E0F990000B12013575F004A42D
:1011D900FF90000C1201357C002FFFEC35F0FEEF7B
:1011E9007802C333CE33CED8F9FF90000D12013502
:1011F9007C002FFFEC3EFE900076E0FBA3E0FAA313
:10120900E0F9900006EE8FF01202F6900073E0FB11
:10121900A3E0FAA3E0F990000E12013575F004A4D9
:10122900FF90000F1201352FFFEC35F0FE9000768C
:10123900E0FBA3E0FAA3E0F9900008EE8FF01202B8
:10124900F6900073E0FBA3E0FAA3E0F99000101216
:10125900013575F004A4FF9000111201352FFFEC40
:1012690035F0FEEF7802C333CE33CED8F9FF9000C4
:10127900121201357C002FFFEC3EFE900076E0FB58
:10128900A3E0FAA3E0F990000AEE8FF01202F690BB
:101299000073E0FBA3E0FAA3E0F990001312013513
:1012A900FF64026005EF64037015900076E0FBA30C
:1012B900E0FAA3E0F990000AE475F04012028A907E
:1012C9000076E0FBA3E0FAA3E0F990000A74077541
:0612D900F0D012028A228F
:0B0DC60090001AEBF0A3EAF0A3E9F0A4
:100DD100781D7C007D017BFF7A1D797B7E007F2859
:100DE1001200F6E490006DF0A3F0A3F0A3F0A3F0DD
:100DF100A3F0121C20900069EEF0A3EFF04E700BEF
:100E01007BFF7A1D7958121DD880097BFF7A1D79E5
:100E11005F121DD8900069E0B4FF2BA3E0B4FF2658
:100E2100C390006EE0940590006DE0648094804072
:100E3100057EFF7FFF2290006EE004F070069000B7
:100E41006DE004F080ACD3900070E0941490006FDA
:100E5100E06480948040057EFF7FFF221217D71245
:100E61001C9290006BEEF0A3EFF0BEFF08BFFF05F0
:100E71007EFF7FFF2290006BE07004A3E0640460BA
:100E810010900070E004F0700690006FE004F080B4
:100E9100B5E4900071F0A3F0900071E0FEA3E0FFD3
:100EA100C39402EE648094804003020FC2E4900078
:100EB1006DF0A3F090006DE0FCA3E0FD90001D75C6
:100EC100F014EF1204DCEE75F014A42583F583E52C
:100ED100822DF582E5833CF5837404F090006EE089
:100EE10004F0700690006DE004F01217D7121C9206
:100EF10090006BEEF0A3EFF0BEFF08BFFF057EFF91
:100F01007FFF2290006BE07004A3E06404703F90C7
:100F1100006DE07004A3E06414702E900071E0FE97
:100F2100A3E0FF7C007D14120174741D2FF974007D
:100F31003EFA7B011212DFEF4E606C7BFF7A1D7966
:100F410067121DD87EFF7FFF227EFF7FFF22C390A5
:100F5100006EE0941490006DE06480948040057E02
:100F6100FF7FFF2290006BE0A3E0FFA3E0FCA3E082
:100F7100FD900071E0FAA3E090001D75F0141204D9
:100F8100DCEA75F014A42583F583E5822DF582E56D
:100F9100833CF583EFF090006EE004F07006900062
:100FA1006DE004F0020EEB7BFF7A1D7975121DD8FE
:100FB100900072E004F07006900071E004F0020EFF
:100FC100999000767401F0A37400F0A37445F07B4E
:100FD100017A00791D1210999000767401F0A374C2
:100FE10000F0A37457F07B017A0079311210997BDC
:100FF100017A0079451209F37B017A0079571209C8
:10100100F3900053E0F8A3E0F9A3E0FAA3E0FB902A
:101011000065E0FCA3E0FDA3E0FEA3E0C39BFFEEBF
:101021009AFEED99FDEC98FCE47B14FAF9F8C312F1
:101031000372705F90001AE0FBA3E0FAA3E0F8AC42
:1010410002AD037B017A0079577E007F121200F610
:1010510090001AE0FBA3E0FAA3E0240EF9E43AFAC7
:10106100120388EF2415FFE43EFEE43DFDE43CFC61
:101071001203D890001AE0FBA3E0FAA3E0F91205ED
:10108100B290001AE0FBA3E0FAA3E0F91216CAE459
:07109100FEFF227EFF7FFF3E
:011098002235
:101EA400001F001C001F001E001F001E001F001F3B
:101EB400001E001F001E001F001F001C001F001E2C
:101EC400001F001E001F001F001E001F001E001F19
:101E57005800BD0000001F003B005A0078009700A3
:0B1E6700B500D400F301110130014E62
:101DA300AB07AA067C007D041201DBED4C700EFC30
:101DB3007D64AF03AE021201DBED4C700FAE02AFD8
:101DC300037C017D901201DBED4C70057E007F01E9
:051DD30022E4FEFF22E6
:1015B60090009AEBF0A3EAF0A3E9F0A3ECF0A3ED18
:0115C600F034
:1015C700789F7C007D017BFF7A1E79A47E007F18BF
:1015D7001200F6E49000B7F0A3F0A3F0A304F0E440
:1015E700A3F0A3F090009AE0FBA3E0FAA3E0F99040
:1015F700000A120252FFAEF0121DA3EF4E600E90CA
:1016070000A2E004F070069000A1E004F09000BC96
:10161700E025E0FF9000BBE033FE749F2FF5827456
:10162700003EF583E0FEA3E0FFC390009EE09FFD30
:1016370090009DE09EFCF0A3EDF0C3EC64809480E5
:10164700502BE02FF090009DE03EF0E0FFA3E090EC
:1016570000B7CFF0A3EFF09000BCE02401FE9000AC
:10166700BBE034009000B9F0A3CEF080109000BC2E
:10167700E004F070069000BBE004F08090D3900087
:10168700BCE0940B9000BBE06480948040057EFF33
:101697007FFF229000B7E0FEA3E0FF90009AE0FBF7
:1016A700A3E0FAA3E0F9900006EE8FF01202F6909D
:1016B70000B9E0FFA3E0900008CF8FF01202F6E434
:0216C700FEFF24
:0116C90022FE
:0B09F300900073EBF0A3EAF0A3E9F022
:1009FE0090000A120252FF900076E5F0F0A3EFF09D
:100A0E0090000E1204B80000000090000A74F875F1
:100A1E00F09412028AE9240AF9E43AFAC003C002F9
:100A2E00C001120227FFAEF0900073E0FBA3E0FAC4
:100A3E00A3E0F990000A120252C39446E5F06480D6
:100A4E00948050067CFF7DE280047C007D46C3EFDF
:100A5E009DFFEE9CD001D002D0038FF01202D790F2
:100A6E000073E0FBA3E0FAA3E0240EF9E43AFAC027
:100A7E0003C002C001120388C004C005C006C0072F
:100A8E00900073E0A3E0FAA3E0F990000A1202527C
:100A9E00FFAEF0EE3395E0FDFC7B807A3379E178A2
:100AAE0001120323A804A905AA06AB07D007D00696
:100ABE00D005D004EF2BFFEE3AFEED39FDEC38FCFD
:100ACE00D001D002D0031203D8900073E0FBA3E054
:100ADE00FAA3E0240EF9E43AFAC003C002C00112F0
:100AEE000388C004C005C006C007900073E0A3E0F1
:100AFE00FAA3E0F990000A1202522401FFE435F045
:100B0E00FE7C007D041201DBEE3395E0FDFC7B8064
:100B1E007A5179017800120323A804A905AA06AB1D
:100B2E0007D007D006D005D004EF2BFFEE3AFEED2E
:100B3E0039FDEC38FCD001D002D0031203D890005E
:100B4E0073E0FBA3E0FAA3E0240EF9E43AFAC00343
:100B5E00C002C001120388C004C005C006C00790C1
:100B6E000073E0A3E0FAA3E0F99000081202522508
:100B7E00E0FFE5F033FE74BB2FF58274003EF58383
:100B8E00E0FEA3E0FFEE3395E0FDFC7B807A517929
:100B9E00017800120323A804A905AA06AB07D00703
:100BAE00D006D005D004EF2BFFEE3AFEED39FDEC6A
:100BBE0038FCD001D002D0031203D8900073E0FBB2
:100BCE00A3E0FAA3E0F990000A12025224B2FFE564
:100BDE00F03407FE121DA3EF4E6038900073E0FB59
:100BEE00A3E0FAA3E0F9900008120252D39402E5B2
:100BFE00F064809480401CE9240EF9E43AFA120362
:100C0E0088EF2480FFEE3451FEED3401FDE43CFC10
:100C1E001203D8900073E0FBA3E0FAA3E0240EF9D0
:100C2E00E43AFAC003C002C001120388C004C00532
:100C3E00C006C007900073E0A3E0FAA3E0F99000AD
:100C4E000612025224FFFFE5F034FFFE3395E0FD5D
:100C5E00FC7B807A5179017800120323A804A90540
:100C6E00AA06AB07D007D006D005D004EF2BFFEEB7
:100C7E003AFEED39FDEC38FCD001D002D003120360
:100C8E00D8900073E0FBA3E0FAA3E0240EF9E43A57
:100C9E00FAC003C002C001120388C004C005C0061A
:100CAE00C007900073E0A3E0FAA3E0F990000412ED
:100CBE000252FFAEF0EE3395E0FDFCE47B107A0EAF
:100CCE00F9F8120323A804A905AA06AB07D007D08A
:100CDE0006D005D004EF2BFFEE3AFEED39FDEC38D1
:100CEE00FCD001D002D0031203D8900073E0FBA316
:100CFE00E0FAA3E0240EF9E43AFAC003C002C00100
:100D0E00120388C004C005C006C007900073E0A39C
:100D1E00E0FAA3E0F9900002120252FFAEF07C005E
:100D2E007D3C120174AB07AA06EA3395E0F9F8D0C0
:100D3E0007D006D005D004EF2BFFEE3AFEED39FDBD
:100D4E00EC38FCD001D002D0031203D8900073E02F
:100D5E00FBA3E0FAA3E0240EF9E43AFAC003C002C2
:100D6E00C001120388C006C007900073E0A3E0FA2A
:100D7E00A3E0F9120227FFAEF0FBAA06EA3395E0D4
:100D8E00F9F8D007D006EF2BFFEE3AFEED39FDEC69
:100D9E0038FCD001D002D0031203D8900076E0FECA
:100DAE00A3E0FF900073E0FBA3E0FAA3E0F990004C
:070DBE000AEE8FF01202F6AD
:010DC500220B
:0B05B200900073EBF0A3EAF0A3E9F067
:1005BD0078767C007D017BFF7A1E79BC7E007F18EA
:1005CD001200F6900073E0FBA3E0FAA3E0F99000AF
:1005DD000E1203A890009612047B90008E120487D1
:1005ED00000007B290008EE0A3E0A3E0FEA3E0FFC1
:1005FD00121DA3EF4E600AA31204870001518080E3
:10060D000A90009212048700000000900073E0FB36
:10061D00A3E0FAA3E0F990000E1203A8EF2480FFE7
:10062D00EE34CCFEED341EFDEC34FEFC900092E079
:10063D00F8A3E0F9A3E0FAA3E0FBC3EF9BFFEE9A6A
:10064D00FEED99FDEC98FC3350030206D990007332
:10065D00E0FBA3E0FAA3E0240EF9E43AFAC003C0EC
:10066D0002C001120388C004C005C006900092E0CC
:10067D00FCA3E0FDA3E0FEA3E02480FBEE3433FAFF
:10068D00ED34E1F9EC3401F8D006D005D004C3EF18
:10069D009BFFEE9AFEED99FDEC98FCD001D002D0B7
:1006AD00031203D890008EE0FCA3E0FDA3E0FEA3AF
:1006BD00E0FFE4FAF9F8EF2401FFEA3EFEE93DFD23
:1006CD00E83CFC90008E12047B0205F190008EE058
:1006DD00A3E0A3E0FEA3E0FF900073E0FBA3E0FA2C
:1006ED00A3E0F990000AEE8FF01202F690000A12C4
:1006FD000252FFAEF0121DA3EF4E600E900079E096
:10070D0004F07006900078E004F090008E120487DB
:10071D000000000090008EE0A3E0A3E0FEA3E090B7
:10072D00007675F0021204DCEE25E02583F583E0FA
:10073D00FEA3E0FFEE3395E0FDFC7B807A5179015D
:10074D007800120323900073E0FBA3E0FAA3E0F915
:10075D0090000E120416C31203724077900073E0DE
:10076D00FBA3E0FAA3E0240EF9E43AFAC003C002B9
:10077D00C001120388C004C005C006C00790008EDA
:10078D0012044690007675F002EF1204DCEE25E0BF
:10079D002583F583E0FEA3E0FFEE3395E0FDFC7BC2
:1007AD00807A5179017800120323A804A905AA06BD
:1007BD00AB07D007D006D005D004C3EF9BFFEE9A50
:1007CD00FEED99FDEC98FCD001D002D0031203D8B8
:1007DD0002072190008EE0A3E0A3E0FEA3E0240138
:1007ED00FFE43EFE900073E0FBA3E0FAA3E0F99076
:1007FD000008EE8FF01202F690008E1204870000B2
:10080D000001900073E0FBA3E0FAA3E0F990000E65
:10081D001203A87B807A5179017800D312037250AC
:10082D004E900073E0FBA3E0FAA3E0240EF9E43A46
:10083D00FA120388C3EF9480FFEE9451FEED9401FC
:10084D00FDEC9400FC1203D890008EE0FCA3E0FDBB
:10085D00A3E0FEA3E0FFE4FAF9F8EF2401FFEA3E7E
:10086D00FEE93DFDE83CFC90008E12047B809390E8
:10087D00008EE0A3E0A3E0FEA3E0FF900073E0FB99
:10088D00A3E0FAA3E0F9900006EE8FF01202F690C5
:10089D00008E12048700000000900073E0FBA3E0BF
:1008AD00FAA3E0F990000E1203A8E47B107A0EF97A
:1008BD00F8D3120372504E900073E0FBA3E0FAA33D
:1008CD00E0240EF9E43AFA120388C3EF9410FFEE18
:1008DD00940EFEED9400FDEC9400FC1203D89000F4
:1008ED008EE0FCA3E0FDA3E0FEA3E0FFE4FAF9F83F
:1008FD00EF2401FFEA3EFEE93DFDE83CFC90008E51
:10090D0012047B809490008EE0A3E0A3E0FEA3E0B0
:10091D00FF900073E0FBA3E0FAA3E0F9900004EE72
:10092D008FF01202F690008E1204870000000090E6
:10093D000073E0FBA3E0FAA3E0F990000E1203A808
:10094D00E47B3CFAF9F8D3120372504E900073E039
:10095D00FBA3E0FAA3E0240EF9E43AFA120388C3EC
:10096D00EF943CFFEE9400FEED9400FDEC9400FC42
:10097D001203D890008EE0FCA3E0FDA3E0FEA3E0FF
:10098D00FFE4FAF9F8EF2401FFEA3EFEE93DFDE848
:10099D003CFC90008E12047B809590008EE0A3E0CD
:1009AD00A3E0FEA3E0FF900073E0FBA3E0FAA3E059
:1009BD00F9900002EE8FF01202F690000E1203A8CD
:1009CD00EE8FF01202D7900096E0FCA3E0FDA3E0BD
:1009DD00FEA3E0FF900073E0FBA3E0FAA3E0F99023
:0509ED00000E1203F2F0
:0109F20022E2
:0B16CA00900073EBF0A3EAF0A3E9F03E
:1016D500900073E0FBA3E0FAA3E0F990000A120280
:1016E50052FF900076E5F0F0A3EFF09000081202AB
:1016F50052FFAEF0900078EEF0A3EFF090000612E6
:101705000252FBAAF0EF64014E600C900078E07085
:1017150004A3E06402701C900077E024FFF09000C1
:1017250076E034FFF0900079E0240CF0900078E04A
:101735003400F0900079E02401FF900078E0340057
:10174500FE7C007D031201747D051201DBAC06AD44
:1017550007A3E025E0FF900078E033FEEF2BFFEED6
:101765003ACF2DCF3CFE900077E02FFB900076E03E
:101775003EFAE0FEA3E0FF7C007D041201DBEF2BC7
:10178500FBEE3AFA900076E0FEA3E0FF7C007D6474
:101795001201DBC3EB9FFBEA9EFA900076E0FEA305
:1017A500E0FF7C017D901201DBEF2BFFEE3AFE7C22
:1017B500007D071201DBED2401FFE43CFE90007380
:1017C500E0FBA3E0FAA3E0F990000CEE8FF0120223
:0117D500F61D
:0117D60022F0
:0600030000007F03DFFE98
:0100090022D4
:0F204400D290D291120003C290120003C29122D7
:0A207900C290D291120003D290220F
:021E0C00AE071F
:101E0E00E4FDEDC39408748094805025EE30E70411
:101E1E00D2908002C290120003D291120003C2919E
:101E2E00ED64077002D290EE25E0FE1200030D80E5
:011E3E00D1D2
:011E3F002280
:101F0100E4FEFDEDC39408748094805015EE25E045
:101F1100FED2911200033090010EC2911200030D06
:041F210080E1AF06A6
:011F25002299
:101FAB00D290120003D2911200033090047E018074
:0A1FBB0002E4FEC291120003AF061B
:011FC50022F9
:0F205300EFC4540F75F00AA4FEEF540F2EFF22B6
:101FF900EF75F00A84FEC454F0FEEF75F00A84E52B
:04200900F02EFF2294
:101F4A00AC05AB071220447FD0121E0C121FABAF98
:101F5A0003121E0C121FABAF04121E0C121FAB127F
:031F6A00207922B9
:021ED400AC0759
:101ED6001220447FD0121E0C121FABAF04121E0C30
:101EE600121FAB1220447FD1121E0C121FAB121F01
:0A1EF60001AE07122079AF067E004E
:011F000022BE
:101E7300E4FD7F0E121F4AE4FDFC1200030DBD00BA
:101E8300010CED64C84C70F2E4FD7F0F121F4AE4AD
:101E9300FCFD1200030DBD00010CED64C84C70F293
:011EA300221C
:101CF000AA03A905121FF9AD077F06121F4AAF01FB
:101D0000121FF9AD077F05121F4AAF02121FF9AD6E
:101D1000077F04121F4A90001DE0FF121FF9AD0754
:101D20007F02121F4AA3E0FF121FF9AD077F0112C5
:101D30001F4AA3E0FF121FF9AD07E4FF121F4AA3D9
:0D1D4000E0FF121FF9AD077F03121F4A22BA
:101A67007F06121ED4122053EF1201627F05121E49
:101A7700D412205390001DE0FBA3E0FAA3E0F9EF96
:101A87001201627F04121ED4122053900020E0FB43
:101A9700A3E0FAA3E0F9EF1201627F02121ED4EF6E
:101AA700543FFF122053900023E0FBA3E0FAA3E08A
:101AB700F9EF1201627F01121ED412205390002603
:101AC700E0FBA3E0FAA3E0F9EF120162E4FF121EC4
:101AD700D4122053900029E0FBA3E0FAA3E0F9EF2A
:101AE7001201627F03121ED412205390002CE0FBD8
:0B1AF700A3E0FAA3E0F9EF1201622265
:03000000021B944C
:0C1B9400787FE4F6D8FD758107021BDBAA
:10002600E709F608DFFA8046E709F208DFFA803EBC
:1000360088828C83E709F0A3DFFA8032E309F608A9
:10004600DFFA8078E309F208DFFA807088828C8311
:10005600E309F0A3DFFA806489828A83E0A3F608C5
:10006600DFFA805889828A83E0A3F208DFFA804C9F
:1000760080D280FA80C680D4806980F28033801076
:1000860080A680EA809A80A880DA80E280CA8033DF
:1000960089828A83ECFAE493A3C8C582C8CCC58357
:1000A600CCF0A3C8C582C8CCC583CCDFE9DEE78027
:1000B6000D89828A83E493A3F608DFF9ECFAA9F0A6
:1000C600EDFB2289828A83ECFAE0A3C8C582C8CCFC
:1000D600C583CCF0A3C8C582C8CCC583CCDFEADE15
:1000E600E880DB89828A83E493A3F208DFF980CC77
:1000F60088F0EF60010E4E60C388F0ED2402B40470
:100106000050B9F582EB2402B4040050AF23234516
:06011600822390007673C5
:10011C00BB010689828A83E0225002E722BBFE02E1
:09012C00E32289828A83E4932214
:10013500BB010CE58229F582E5833AF583E022507F
:1001450006E92582F8E622BBFE06E92582F8E222C9
:0D015500E58229F582E5833AF583E49322E3
:10016200BB010689828A83F0225002F722BBFE017C
:02017200F32276
:10017400EF8DF0A4A8F0CF8CF0A428CE8DF0A42E9F
:02018400FE2259
:10018600BC000BBE0029EF8DF084FFADF022E4CC5D
:10019600F875F008EF2FFFEE33FEEC33FCEE9DEC26
:1001A600984005FCEE9DFE0FD5F0E9E4CEFD22ED6C
:1001B600F8F5F0EE8420D21CFEADF075F008EF2FB6
:1001C600FFED33FD4007985006D5F0F222C398FDA7
:0501D6000FD5F0EA2244
:1001DB00C2D5EC30E709B2D5E4C39DFDE49CFCEE3F
:1001EB0030E715B2D5E4C39FFFE49EFE120186C330
:1001FB00E49DFDE49CFC800312018630D507C3E42B
:06020B009FFFE49EFE22AD
:10021100A3F8E0C5F025F0F0E582158270021583A0
:06022100E0C838F0E822FD
:10022700BB010A89828A83E0F5F0A3E022500687A2
:10023700F009E71922BBFE07E3F5F009E319228964
:0B024700828A83E493F5F07401932297
:10025200BB0110E58229F582E5833AF583E0F5F0EA
:10026200A3E0225009E92582F886F008E622BBFEC7
:100272000AE92582F8E2F5F008E222E5832AF5830D
:08028200E993F5F0A3E99322D2
:10028A00BB010DC58229C582C5833AC5830204E82C
:10029A005011C58229F808E5F026F618F5F0E5822E
:1002AA0036F622BBFE11C58229F808E225F0F5F0E0
:1002BA00F218E23582F222F8E58229F582E5832AEC
:0D02CA00F58374019325F0F5F0E4933822DC
:1002D700BB010A89828A83F0E5F0A3F0225006F772
:0F02E70009A7F01922BBFE06F3E5F009F319226F
:1002F600F8BB0111E58229F582E5833AF583E8F03A
:10030600E5F0A3F0225009E92582C8F608A6F022F6
:0D031600BBFE09E92582C8F2E5F008F222DD
:10032300E88FF0A4CC8BF0A42CFCE98EF0A42CFC79
:100333008AF0EDA42CFCEA8EF0A4CDA8F08BF0A4F7
:100343002DCC3825F0FDE98FF0A42CCD35F0FCEB56
:100353008EF0A4FEA9F0EB8FF0A4CFC5F02ECD391B
:0F036300FEE43CFCEAA42DCE35F0FDE43CFC2288
:10037200EB9FF5F0EA9E42F0E99D42F0EC6480C802
:0603820064809845F022A2
:10038800BB010789828A8302050A5005E9F802043D
:10039800FEBBFE05E9F802051689828A830205225A
:1003A800BB010DE58229F582E5833AF58302050A4A
:1003B8005007E92582F80204FEBBFE07E92582F80A
:1003C800020516E58229F582E5833AF583020522BE
:1003D800BB010789828A8302047B5005E9F802057C
:0A03E80068BBFE05E9F80205742267
:1003F200BB010DE58229F582E5833AF58302047B90
:100402005007E92582F8020568BBFE07E92582F854
:040412000205742249
:10041600BB010DE58229F582E5833AF58302053FA6
:100426005007E92582F8020532BBFE07E92582F866
:1004360002054BE58229F582E5833AF583020558E4
:100446007401FF3395E0FEFDFCA3A3A3E0CF2FF0DC
:10045600E582158270021583E0CE3EF0E5821582B4
:1004660070021583E0CD3DF0E5821582700215839A
:05047600E0CC3CF02287
:0C047B00ECF0A3EDF0A3EEF0A3EFF022F4
:10048700A8828583F0D083D08212049E12049E1224
:10049700049E12049EE473E493A3C583C5F0C58349
:1004A700C8C582C8F0A3C583C5F0C583C8C582C8BF
:0104B7002222
:1004B800BB010DE58229F582E5833AF583020487BD
:1004C8005007E92582F8020580BBFE07E92582F876
:0404D800020599225E
:0C04DC00A42582F582E5F03583F583222B
:101BA00002200DE493A3F8E493A34003F68001F22E
:101BB00008DFF48029E493A3F85407240CC8C33346
:101BC000C4540F4420C8834004F456800146F6DF15
:101BD000E4800B0102040810204080901E40E47E47
:101BE000019360BCA3FF543F30E509541FFEE4930A
:101BF000A360010ECF54C025E060A840B8E493A3D1
:101C0000FAE493A3F8E493A3C8C582C8CAC583CAFB
:101C1000F0A3C8C582C8CAC583CADFE9DEE780BEB3
:011E7200006F
:1004E800C5F0F8A3E028F0C5F0F8E582158270029F
:0604F8001583E038F0223C
:0C04FE00E6FC08E6FD08E6FE08E6FF222A
:0C050A00E0FCA3E0FDA3E0FEA3E0FF2264
:0C051600E2FC08E2FD08E2FE08E2FF2221
:10052200E493FC740193FD740293FE740393FF221F
:0D053200E6FB08E6F908E6FA08E6CBF82239
:0C053F00E0F8A3E0F9A3E0FAA3E0FB223F
:0D054B00E2FB08E2F908E2FA08E2CBF82230
:10055800E493F8740193F9740293FA740393FB22F9
:0C056800ECF608EDF608EEF608EFF622BF
:0C057400ECF208EDF208EEF208EFF222C3
:10058000D083D082E493F608740193F60874029342
:09059000F608740393F674047379
:10059900D083D082E493F208740193F20874029331
:0905A900F208740393F274047368
:00000001FF
