:101AF500E4F593F594F591F592F595F596F5B1F52F
:101B0500B2F5B3F5B4F5C9F5CAF5CBF5CCF5E1F504
:021B1500E222CA
:10000E00121AF5121B57D2AC121B97D2A9D2AF12ED
:05001E000003021BB904
:041BCE003030300083
:101B5700759850438E01538EFB75D7F375D6FFE406
:091B67007800F2D299438E10229D
:0A1BC4007800E270FB04F28F992212
:101A3E007839EBF208EAF208E9F27839E2FB08E2CB
:101A4E00FA08E2F912011C601A7839E2FB0808E282
:101A5E00F92401F218E2FA3400F212011CFF121BF3
:041A6E00C480D72237
:041800007834EFF257
:10180400087C007DFE7BFF7A1B79CE7E007F04126C
:1018140000F67834E2FF75F00A847837E5F0F2EFE9
:1018240075F0648475F064A4FF7834E2FB7A00C335
:101834009FFFEA95F0FE7C007D0A1201747836EF72
:10184400F208E2FFC3EB9FFDEA9400FC18E275F096
:101854000AA4FFC3ED9FFFEC95F0FE7C007D6412AB
:1018640001747835EFF27837E22430F218E224304C
:0F187400F218E22430F27BFE7A007935021A3E38
:03002300021B3984
:101B3900C0E0C0D075D000C000309802C29830997A
:0E1B490006C2997800E4F2D000D0D0D0E0328D
:0B1ACF0082030000810500820100007E
:101B9700538E7F5389F0758A0C758CFEC28DD28C5B
:011BA700221B
:101BA8007803EEF208EFF27804E2700218E270F7B8
:011BB800220A
:021B7000AD07BF
:101B7200E4FCECC39D500A7FE87E03121BA80C8094
:011B8200F171
:011B8300223F
:03000B0002177762
:10177700C0E0C0F0C083C082C0D075D000C000C038
:0D17870001C002C003C004C005C006C007B9
:101794007804E2700218E2600B7804E224FFF21885
:1017A400E234FFF27801E2FE08E2FFE4FCFD7B6034
:1017B4007AEAF9F8D312034A50067801E4F208F2FF
:1017C4007801E2FE08E2FF7C007D0A120174ED4C10
:1017D4007004780504F27802E22401F218E234007D
:0117E400F212
:1017E500D007D006D005D004D003D002D001D00058
:0B17F500D0D0D082D083D0F0D0E03202
:06000300121BD5021BDBFD
:031BD200C2B62276
:031BD500D2B62263
:031BD800C2B7226F
:031BDB00D2B7225C
:101B8400EFFD7C00643C7002D291ED64284C70023D
:031B9400C29122D9
:031BDE00C2902290
:031BE100D290227D
:10190500E4787AF208F22092247F0A7E00121BA85E
:10191500C3787BE2946418E2648094804002802B53
:10192500787BE22401F218E23400F280D9E4787A77
:10193500F208F23092277F0A7E00121BA8C3787B3B
:10194500E2946418E26480948040057EFF7FFF2264
:10195500787BE22401F218E23400F280D6E4FEFF3F
:01196500225F
:10188300E4787AF208F2FFFEFDEDC3946474809469
:101893008050257805E2640170EFA29233600D78E1
:1018A3007BE22401F218E23400F280050FBF00014D
:1018B3000E0DE47805F280D1C3EF940FEE9400404F
:1018C3000ED3EF9419EE940050057E007F5022C38F
:1018D300EF944BEE9400400ED3EF9455EE940050EA
:1018E300057E007F3022C3EF942DEE9400400ED38B
:1018F300EF9437EE940050057E007F31227EFF7F08
:01190300FFE4
:0119040022C0
:101B1700EF64304E7003FEFF22EF64314E7004FE17
:101B27007F0122EF64504E7004FE7F02227EFF7F0A
:021B3700FF228B
:0B1BB900C2924391045392FB021BE117
:0A109B007888EBF208EAF208E9F2A7
:1010A500900024120135FF788BE4F208EFF29000EE
:1010B50025120135FF788DE4F208EFF2E408F20815
:1010C500F29000011201356401700B7890E2240161
:1010D500F218E23400F27888E2FB08E2FA08E2F955
:1010E5009000021201356401700B7890E22401F240
:1010F50018E23400F29000031201356401700B7898
:1011050090E22401F218E23400F290000512013554
:101115006401700B7890E22401F218E23400F29039
:1011250000061201356401700B7890E22401F21873
:10113500E23400F27888E2FB08E2FA08E2F990006E
:10114500071201356401700B7890E22401F218E270
:101155003400F29000081201356401700B7890E2BA
:101165002401F218E23400F2788FE2FE08E2FF7CF7
:10117500007D021201C9788EE26D700318E26C6081
:1011850003021320E4788FF208F27888E2FB08E284
:10119500FA08E2F990000C1201356401700B7890A1
:1011A500E22401F218E23400F290000D12013564D8
:1011B50001700B7890E22401F218E23400F29000FD
:1011C5000F1201356401700B7890E22401F218E2E8
:1011D5003400F29000101201356401700B7890E232
:1011E5002401F218E23400F27888E2FB08E2FA08FA
:1011F500E2F99000111201356401700B7890E22438
:1012050001F218E23400F290001212013564017007
:101215000B7890E22401F218E23400F2788FE2FEB6
:1012250008E2FF7C007D021201C9788CE26D700333
:1012350018E26C60030213207888E2FB08E2FA08E2
:10124500E2F912011C64027046900009120135642E
:1012550002703C9000131201356402703290001D3B
:10126500120135640270287888E2FB08E2FA08E288
:10127500F9900027120135640270149000311201B3
:10128500356402700A90003B120135640260030266
:10129500132090000412013560030213207888E2C0
:1012A500FB08E2FA08E2F990000A120135706C9029
:1012B500000B120135706490000E120135705C90C0
:1012C500001412013570547888E2FB08E2FA08E24E
:1012D500F990001512013570429000181201357011
:1012E5003A900022120135703290002312013570B8
:1012F5002A7888E2FB08E2FA08E2F9900037120141
:1013050035701890003812013570109000391201AF
:1013150035700890003A12013560057EFF7FFF2287
:03132500E4FEFFE4
:0113280022A2
:101966002FFFEC3EFEE22FF218E23EF2E2FE08E224
:01197600FF71
:10197700AB07AA06EB7804CEA2E713CE13D8F87EFE
:1019870000540FFF7C007D0A1201628E838F82EA6A
:10199700FF7E00EF540FFF7D64120162EF2582FF87
:0F19A700EE3583FE7C00EB540F2FFFEC3EFE224B
:0A0CFE00787AEBF208EAF208E9F256
:100D080008E2FB08E2FA08E2F912109BEF4E6005D0
:100D18007EFF7FFF22787DE2FB08E2FA08E2F99085
:100D2800000112013575F002A4FF9000021201358E
:100D38007C002FFFEC35F0FEEF25E0FFEE33FE9050
:100D480000031201352FFFEC3EFEEFC4F8540FC824
:100D580068FFEEC454F0487880F208EFF29000057E
:100D680012013575F002A4FF9000061201352FFF1D
:100D7800EC35F0FEEF25E0FFEE33FE9000071201A0
:100D8800352FFFEC3EFEEF25E0FFEE33FE90000826
:100D98001201357881121966787AE2FB08E2FA08BE
:100DA800E2F9900002EE8FF01202CE787DE2FB08A5
:100DB800E2FA08E2F990000C12013575F002A4FF7E
:100DC80090000D1201357C002FFFEC35F0FEEFC4CA
:100DD800F8540FC868FFEEC454F0487882F208EF60
:100DE800F290000F12013575F002A4FF9000101266
:100DF80001352FFFEC35F0FEEF25E0FFEE33FE90D6
:100E080000111201352FFFEC3EFEEF25E0FFEE3317
:100E1800FE9000121201357883121966787AE2FB87
:100E280008E2FA08E2F9900004EE8FF01202CE7898
:100E38007DE2FB08E2FA08E2F99000291201357513
:100E4800F002A4FF90002A1201357C002FFFEC3538
:100E5800F0FEEF25E0FFEE33FE90002B1201352F58
:100E6800FFEC3EFEEF25E0FFEE33FE90002C120172
:100E7800352FFFEC3EFEEFC4F8540FC868FFEEC4F0
:100E880054F0487886F208EFF290002D120135757B
:100E9800F002A4FF90002E1201352FFFEC35F0FE72
:100EA800EF25E0FFEE33FE90002F1201352FFFEC07
:100EB8003EFEEF25E0FFEE33FE9000301201352FA5
:100EC800FFEC3EFE788712196BEF24D0FFEE340753
:100ED800FE787AE2FB08E2FA08E2F990000AEE8F5F
:100EE800F01202CE787DE2FB08E2FA08E2F99000FF
:100EF8001612013575F002A4FF9000171201357C17
:100F0800002FFFEF7884F208E4F2900019120135FF
:100F180075F002A4FF90001A1201352FFFEC35F08E
:100F2800FEEF25E0FFEE33FE90001B1201352FFF88
:100F3800EC3EFEEF25E0FFEE33FE90001C1201357B
:100F48002FFFEC3EFEEFC4F8540FC868FFEEC45400
:100F5800F048FE7885E22FF218E23EF290001E1269
:100F6800013575F002A4FF90001F1201352FFFEC28
:100F780035F0FEEF25E0FFEE33FE9000201201353C
:100F88002FFFEC3EFEEF25E0FFEE33FE900021122E
:100F980001352FFFEC3EFE788512196BAC06AD07C4
:100FA800787AE2FB08E2FA08E2F912153B787DE26A
:100FB800FB08E2FA08E2F990003312013575F002F5
:100FC800A4FF9000341201357C002FFFEC35F0FEB1
:100FD800EF25E0FFEE33FE9000341201352FFFECD1
:100FE8003EFE121977787AE2FB08E2FA08E2F990F5
:100FF800000CEE8FF01202CEE4F5F01202AF787A10
:10100800E2FB08E2FA08E2F9120947787AE2FB08FB
:10101800E2FA08E2240EF9E43AFA120360EF243CFB
:10102800FFE43EFEE43DFDE43CFC1203B0787AE2C6
:10103800FB08E2FA08E2240EF9E43AFA120360EF38
:101048002401FFE43EFEE43DFDE43CFC1203B078DD
:101058007AE2FB08E2FA08E2240EF9E43AFA12030B
:1010680060C3EF9410FFEE940EFEED9400FDEC9437
:1010780000FC1203B0787AE2FB08E2FA08E2F912FF
:101088000569787AE2FB08E2FA08E2F912144CE4FE
:02109800FEFF59
:01109A002233
:0A1329007831EBF208EAF208E9F26D
:10133300E408F208F208F208F208F208F208F208E8
:10134300F208F208F2121905BEFF21BFFF1EC3788F
:1013530035E2940518E264809480400302144378D4
:1013630035E22401F218E23400F280D9C37839E27D
:10137300943C18E26480948040030214431218835F
:10138300121B17783AEEF208EFF2BEFF06BFFF0317
:10139300021443783AE2FE08E2FF64024E700B78CF
:1013A3003DE26402700218E260147839E22401F22B
:1013B30018E23400F2783CEEF208EFF280AE783EA9
:1013C3007402F27836E4F20804F2121883121B173F
:1013D300783AEEF208EFF2BEFF05BFFF02806178B4
:1013E3003AE2FC08E2FD64024C700C783608E22411
:1013F3003DF8E26402602B7836E2FA08E2FBC3941C
:101403003CEA6480948050028001C34002803174BE
:101413003E2BF8EDF27837E22401F218E23400F2C1
:1014230080A8787D74FEF2087400F208743EF278A6
:1014330031E2FB08E2FA08E2F9120CFEEF4E600516
:081443007EFF7FFF22E4FEFFA3
:01144B00227E
:101A7200001F001C001F001E001F001E001F001F71
:101A8200001E001F001E001F001F001C001F001E62
:101A9200001F001E001F001F001E001F001E001F4F
:101ADA0098060000001F003B005A0078009700B5E6
:0A1AEA0000D400F301110130014E99
:091A000090000A12022AFFAEF068
:101A0900AB07AA067C007D041201C9ED4C700EFCDF
:101A19007D64AF03AE021201C9ED4C700FAE02AF87
:101A2900037C017D901201C9ED4C70057E007F0198
:051A390022E4FEFF2283
:10153B007888EBF208EAF208E9F208ECF208EDF22F
:10154B00087C007DFE7BFF7A1A79727E007F181271
:10155B0000F6E478A5F208F208F20804F2E408F2C7
:10156B0008F27888E2FB08E2FA08E2F9121A00EFB7
:10157B004E60047890804A78A908E225E0248DF823
:10158B00E2FE08E2FFC3788CE29FFD18E29EFCF2BC
:10159B0008EDF2C3EC648094805024E22FF218E241
:1015AB003EF2E2FF08E278A5CFF208EFF278AAE26A
:1015BB002401FE18E2340078A7F208CEF2800D78F1
:1015CB00AAE22401F218E23400F280ABD378AAE24B
:1015DB00940B18E26480948040057EFF7FFF227895
:1015EB00A5E2FE08E2FF7888E2FB08E2FA08E2F9DE
:1015FB00900006EE8FF01202CE78A7E2FF08E29081
:0B160B000008CF8FF01202CEE4FEFFBB
:0116160022B1
:0A0947007888EBF208EAF208E9F202
:1009510090000A12022AFF788BE5F0F208EFF2907C
:10096100000E1204630000000090000A74F875F094
:1009710094120262E9240AF9E43AFAC003C002C0FF
:10098100011201FFFFAEF07888E2FB08E2FA08E20B
:10099100F990000A12022AC39446E5F0648094801B
:1009A10050067CFF7DE280047C007D46C3EF9DFF05
:1009B100EE9CD001D002D0038FF01202AF7888E212
:1009C100FB08E2FA08E2240EF9E43AFAC003C00295
:1009D100C001120360C004C005C006C0077888E2E8
:1009E100FB08E2FA08E2F990000A12022AFFAEF0CF
:1009F100EE3395E0FDFC7B807A3379E178011202D8
:100A0100FBA804A905AA06AB07D007D006D005D0DC
:100A110004EF2BFFEE3AFEED39FDEC38FCD001D0AE
:100A210002D0031203B07888E2FB08E2FA08E2245C
:100A31000EF9E43AFAC003C002C001120360C00417
:100A4100C005C006C0077888E2FB08E2FA08E2F9AF
:100A510090000A12022A2401FFE435F0FE7C007D99
:100A6100041201C9EE3395E0FDFC7B807A517901D6
:100A710078001202FBA804A905AA06AB07D007D08B
:100A810006D005D004EF2BFFEE3AFEED39FDEC3830
:100A9100FCD001D002D0031203B07888E2FB08E257
:100AA100FA08E2240EF9E43AFAC003C002C00112C6
:100AB1000360C004C005C006C0077888E2FB08E2F5
:100AC100FA08E2F990000812022A25E02404F8E26B
:100AD100FE08E2FFEE3395E0FDFC7B807A5179015F
:100AE10078001202FBA804A905AA06AB07D007D01B
:100AF10006D005D004EF2BFFEE3AFEED39FDEC38C0
:100B0100FCD001D002D0031203B07888E2FB08E2E6
:100B1100FA08E2F990000A12022A24B2FFE5F03441
:100B210007FE121A09EF4E60377888E2FB08E2FAF5
:100B310008E2F990000812022AD39402E5F06480D9
:100B41009480401CE9240EF9E43AFA120360EF2480
:100B510080FFEE3451FEED3401FDE43CFC1203B0A4
:100B61007888E2FB08E2FA08E2240EF9E43AFAC0D6
:100B710003C002C001120360C004C005C006C00763
:100B81007888E2FB08E2FA08E2F990000612022AEC
:100B910024FFFFE5F034FFFE3395E0FDFC7B807A16
:100BA10051790178001202FBA804A905AA06AB0736
:100BB100D007D006D005D004EF2BFFEE3AFEED3979
:100BC100FDEC38FCD001D002D0031203B07888E2EA
:100BD100FB08E2FA08E2240EF9E43AFAC003C00283
:100BE100C001120360C004C005C006C0077888E2D6
:100BF100FB08E2FA08E2F990000412022AFFAEF0C3
:100C0100EE3395E0FDFCE47B107A0EF9F81202FB5D
:100C1100A804A905AA06AB07D007D006D005D004C1
:100C2100EF2BFFEE3AFEED39FDEC38FCD001D0029E
:100C3100D0031203B07888E2FB08E2FA08E2240E3E
:100C4100F9E43AFAC003C002C001120360C004C053
:100C510005C006C0077888E2FB08E2FA08E2F990CD
:100C6100000212022AFFAEF07C007D3C120162AB51
:100C710007AA06EA3395E0F9F8D007D006D005D0E7
:100C810004EF2BFFEE3AFEED39FDEC38FCD001D03C
:100C910002D0031203B07888E2FB08E2FA08E224EA
:100CA1000EF9E43AFAC003C002C001120360C006A3
:100CB100C0077888E2FB08E2FA08E2F91201FFAE08
:100CC100F0FBAA06EA3395E0F9F8D007D006EF2B3E
:100CD100FFEE3AFEED39FDEC38FCD001D002D00335
:100CE1001203B0788BE2FE08E2FF7888E2FB08E2AB
:0D0CF100FA08E2F990000AEE8FF00202CE40
:0A0569007888EBF208EAF208E9F2E4
:10057300087C007DFE7BFF7A1A798A7E007F181241
:1005830000F67888E2FB08E2FA08E2F990000E121E
:10059300038078AB12043E78A312044A000007B22A
:1005A30078A30808E2FE08E2FF121A09EF4E78A7C3
:1005B300600912044A00015180800712044A0000B6
:1005C30000007888E2FB08E2FA08E2F990000E12D4
:1005D3000380EF2480FFEE34CCFEED341EFDEC34BB
:1005E300FEFC78A7E2FB08E2F908E2FA08E2CBF89E
:1005F300C3EF9BFFEE9AFEED99FDEC98FC33407B35
:100603007888E2FB08E2FA08E2240EF9E43AFAC039
:1006130003C002C001120360C004C005C00678A76E
:10062300E2FC08E2FD08E2FE08E22480FBEE34333C
:10063300FAED34E1F9EC3401F8D006D005D004C367
:10064300EF9BFFEE9AFEED99FDEC98FCD001D002F2
:10065300D0031203B078A3E2FC08E2FD08E2FE082F
:10066300E2FFE4FAF9F8EF2401FFEA3EFEE93DFD7B
:10067300E83CFC78A312043E0205A378A30808E231
:10068300FE08E2FF7888E2FB08E2FA08E2F990004C
:100693000AEE8FF01202CE121A00EF4E600B788E24
:1006A300E22401F218E23400F278A312044A0000B3
:1006B300000078A3080808E225E0248BF8E2FE088E
:1006C300E2FFEE3395E0FDFC7B807A5179017800FF
:1006D3001202FB7888E2FB08E2FA08E2F990000EC6
:1006E3001203EEC312034A406A7888E2FB08E2FA77
:1006F30008E2240EF9E43AFAC003C002C00112036F
:1007030060C004C005C006C00778A312041EEF250D
:10071300E0248BF8E2FE08E2FFEE3395E0FDFC7B7C
:10072300807A51790178001202FBA804A905AA0670
:10073300AB07D007D006D005D004C3EF9BFFEE9ADA
:10074300FEED99FDEC98FCD001D002D0031203B06A
:100753000206B578A30808E2FE08E22401FFE43E9E
:10076300FE7888E2FB08E2FA08E2F9900008EE8FCF
:10077300F01202CE78A312044A000000017888E246
:10078300FB08E2FA08E2F990000E1203807B807AFC
:100793005179017800D312034A504B7888E2FB0861
:1007A300E2FA08E2240EF9E43AFA120360C3EF9482
:1007B30080FFEE9451FEED9401FDEC9400FC1203D6
:1007C300B078A3E2FC08E2FD08E2FE08E2FFE4FAE7
:1007D300F9F8EF2401FFEA3EFEE93DFDE83CFC7831
:1007E300A312043E809778A30808E2FE08E2FF788C
:1007F30088E2FB08E2FA08E2F9900006EE8FF012B5
:1008030002CE78A312044A000000007888E2FB08B5
:10081300E2FA08E2F990000E120380E47B107A0EEC
:10082300F9F8D312034A504B7888E2FB08E2FA083E
:10083300E2240EF9E43AFA120360C3EF9410FFEED8
:10084300940EFEED9400FDEC9400FC1203B078A32B
:10085300E2FC08E2FD08E2FE08E2FFE4FAF9F8EF41
:100863002401FFEA3EFEE93DFDE83CFC78A31204C7
:100873003E809878A30808E2FE08E2FF7888E2FB4E
:1008830008E2FA08E2F9900004EE8FF01202CE7843
:10089300A312044A000000007888E2FB08E2FA0889
:1008A300E2F990000E120380E47B3CFAF9F8D312CC
:1008B300034A504B7888E2FB08E2FA08E2240EF977
:1008C300E43AFA120360C3EF943CFFEE9400FEEDAA
:1008D3009400FDEC9400FC1203B078A3E2FC08E260
:1008E300FD08E2FE08E2FFE4FAF9F8EF2401FFEA6B
:1008F3003EFEE93DFDE83CFC78A312043E80997876
:10090300A30808E2FE08E2FF7888E2FB08E2FA089F
:10091300E2F9900002EE8FF01202CE90000E120365
:1009230080EE8FF01202AF78ABE2FC08E2FD08E242
:10093300FE08E2FF7888E2FB08E2FA08E2F9900099
:040943000E0203CAD3
:0A144C007888EBF208EAF208E9F2F2
:101456007888E2FB08E2FA08E2F990000A12022A0A
:10146600FF788BE5F0F208EFF290000812022AFFEF
:10147600AEF0788DEEF208EFF290000612022AFB2B
:10148600AAF0EF64014E600B788EE26402700218D7
:10149600E27016788CE224FFF218E234FFF2788EBE
:1014A600E2240CF218E23400F2788EE22401FF18EE
:1014B600E23400FE7C007D031201627D051201C943
:1014C600AC06AD07788EE225E0FF18E233FEEF2B7F
:1014D600FFEE3ACF2DCF3CFE18E22FFB18E23EFA84
:1014E600E2FE08E2FF7C007D041201C9EF2BFBEE51
:1014F6003AFA788BE2FE08E2FF7C007D641201C9AD
:10150600C3EB9FFBEA9EFA788BE2FE08E2FF7C01C2
:101516007D901201C9EF2BFFEE3AFE7C007D07128B
:1015260001C97888E2FB08E2FA08E2F990000CECBF
:051536008DF00202CE61
:101AA2002F00200D0A00462E20003030302D30301D
:101AB200302D3030302D3030302D3030302D303030
:0D1AC200302D303030200D0A00532E200052
:101617007831EBF208EAF208E9F27831E2FB08E206
:10162700FA08E2F990000A12022A2430FF12180081
:101637007BFF7A1A79A2121A3E7831E2FB08E2FAA6
:1016470008E2F990000812022AFF1218007BFF7ABD
:101657001A79A2121A3E7831E2FB08E2FA08E2F997
:1016670090000612022AFF1218007BFF7A1A79A24D
:10167700121A3E7831E2FB08E2FA08E2F990000418
:1016870012022AFF1218007BFF7A1A79A2121A3E59
:101697007831E2FB08E2FA08E2F990000212022A26
:1016A700FF1218007BFF7A1A79A2121A3E7831E2EC
:1016B700FB08E2FA08E2F91201FFFF1218007BFFAC
:1016C7007A1A79A2121A3E7831E2FB08E2FA08E2A6
:1016D700F990000C12022AFF1218007BFF7A1A7980
:0416E700A4021A3E01
:1019B600E4781EF212000E7F3C121B84121BDE7BA3
:1019C600FE7A00791F121329EF4E60177BFF7A1AF1
:1019D60079A8121A3E7BFF7A1A79AC121A3E121BAC
:1019E600D880DC7BFF7A1A79CB121A3E7BFE7A000E
:0A19F600791F121617121BD280C5CC
:030000000216EBFA
:0C16EB00787FE4F6D8FD75810702173205
:10002600E709F608DFFA8046E709F208DFFA803EBC
:1000360088828C83E709F0A3DFFA8032E309F608A9
:10004600DFFA8078E309F208DFFA807088828C8311
:10005600E309F0A3DFFA806489828A83E0A3F608C5
:10006600DFFA805889828A83E0A3F208DFFA804C9F
:1000760080D280FA80C680D4806980F28033801076
:1000860080A680EA809A80A880DA80E280CA8033DF
:1000960089828A83ECFAE493A3C8C582C8CCC58357
:1000A600CCF0A3C8C582C8CCC583CCDFE9DEE78027
:1000B6000D89828A83E493A3F608DFF9ECFAA9F0A6
:1000C600EDFB2289828A83ECFAE0A3C8C582C8CCFC
:1000D600C583CCF0A3C8C582C8CCC583CCDFEADE15
:1000E600E880DB89828A83E493A3F208DFF980CC77
:1000F60088F0EF60010E4E60C388F0ED2402B40470
:100106000050B9F582EB2402B4040050AF23234516
:06011600822390007673C5
:10011C00BB010689828A83E0225002E722BBFE02E1
:09012C00E32289828A83E4932214
:10013500BB010CE58229F582E5833AF583E022507F
:1001450006E92582F8E622BBFE06E92582F8E222C9
:0D015500E58229F582E5833AF583E49322E3
:10016200EF8DF0A4A8F0CF8CF0A428CE8DF0A42EB1
:02017200FE226B
:10017400BC000BBE0029EF8DF084FFADF022E4CC6F
:10018400F875F008EF2FFFEE33FEEC33FCEE9DEC38
:10019400984005FCEE9DFE0FD5F0E9E4CEFD22ED7E
:1001A400F8F5F0EE8420D21CFEADF075F008EF2FC8
:1001B400FFED33FD4007985006D5F0F222C398FDB9
:0501C4000FD5F0EA2256
:1001C900C2D5EC30E709B2D5E4C39DFDE49CFCEE51
:1001D90030E715B2D5E4C39FFFE49EFE120174C354
:1001E900E49DFDE49CFC800312017430D507C3E44F
:0601F9009FFFE49EFE22C0
:1001FF00BB010A89828A83E0F5F0A3E022500687CB
:10020F00F009E71922BBFE07E3F5F009E31922898C
:0B021F00828A83E493F5F074019322BF
:10022A00BB0110E58229F582E5833AF583E0F5F012
:10023A00A3E0225009E92582F886F008E622BBFEEF
:10024A000AE92582F8E2F5F008E222E5832AF58335
:08025A00E993F5F0A3E99322FA
:10026200BB010DC58229C582C5833AC583020487B5
:100272005011C58229F808E5F026F618F5F0E58256
:1002820036F622BBFE11C58229F808E225F0F5F008
:10029200F218E23582F222F8E58229F582E5832A14
:0D02A200F58374019325F0F5F0E493382204
:1002AF00BB010A89828A83F0E5F0A3F0225006F79A
:0F02BF0009A7F01922BBFE06F3E5F009F3192297
:1002CE00F8BB0111E58229F582E5833AF583E8F062
:1002DE00E5F0A3F0225009E92582C8F608A6F0221F
:0D02EE00BBFE09E92582C8F2E5F008F22206
:1002FB00E88FF0A4CC8BF0A42CFCE98EF0A42CFCA2
:10030B008AF0EDA42CFCEA8EF0A4CDA8F08BF0A41F
:10031B002DCC3825F0FDE98FF0A42CCD35F0FCEB7E
:10032B008EF0A4FEA9F0EB8FF0A4CFC5F02ECD3943
:0F033B00FEE43CFCEAA42DCE35F0FDE43CFC22B0
:10034A00EB9FF5F0EA9E42F0E99D42F0EC6480C82A
:06035A0064809845F022CA
:10036000BB010789828A830204A95005E9F80204C7
:100370009DBBFE05E9F80204B589828A830204C1A7
:10038000BB010DE58229F582E5833AF5830204A9D4
:100390005007E92582F802049DBBFE07E92582F893
:1003A0000204B5E58229F582E5833AF5830204C1AA
:1003B000BB010789828A830205135005E9F802050B
:0A03C00007BBFE05E9F802043E2227
:1003CA00BB010DE58229F582E5833AF5830205131F
:1003DA005007E92582F8020507BBFE07E92582F8DE
:0403EA0002043E22A9
:1003EE00BB010DE58229F582E5833AF5830204DE31
:1003FE005007E92582F80204D1BBFE07E92582F8F1
:10040E000204EAE58229F582E5833AF5830204F7D0
:10041E007401FF3395E0FEFDFC080808E2CF2FF2D1
:10042E0018E2CE3EF218E2CD3DF218E2CC3CF222BA
:0C043E00ECF208EDF208EEF208EFF222FA
:10044A00D083D082E493F208740193F20874029381
:09045A00F208740393F2740473B8
:10046300BB010DE58229F582E5833AF58302053860
:100473005007E92582F802051FBBFE07E92582F82C
:0404830002044A2203
:1016F7000219B6E493A3F8E493A34003F68001F23A
:1017070008DFF48029E493A3F85407240CC8C333F3
:10171700C4540F4420C8834004F456800146F6DFC2
:10172700E4800B0102040810204080901ACFE47E69
:10173700019360BCA3FF543F30E509541FFEE493B7
:10174700A360010ECF54C025E060A840B8E493A37E
:10175700FAE493A3F8E493A3C8C582C8CAC583CAA9
:10176700F0A3C8C582C8CAC583CADFE9DEE780BE61
:011AF40000F1
:10048700C5F0F8A3E028F0C5F0F8E5821582700200
:060497001583E038F0229D
:0C049D00E6FC08E6FD08E6FE08E6FF228B
:0C04A900E0FCA3E0FDA3E0FEA3E0FF22C6
:0C04B500E2FC08E2FD08E2FE08E2FF2283
:1004C100E493FC740193FD740293FE740393FF2281
:0D04D100E6FB08E6F908E6FA08E6CBF8229B
:0C04DE00E0F8A3E0F9A3E0FAA3E0FB22A1
:0D04EA00E2FB08E2F908E2FA08E2CBF82292
:1004F700E493F8740193F9740293FA740393FB225B
:0C050700ECF608EDF608EEF608EFF62220
:0C051300ECF0A3EDF0A3EEF0A3EFF0225B
:10051F00D083D082E493F608740193F608740293A3
:09052F00F608740393F6740473DA
:10053800A8828583F0D083D08212054F12054F120E
:10054800054F12054FE473E493A3C583C5F0C58333
:10055800C8C582C8F0A3C583C5F0C583C8C582C80D
:010568002270
:00000001FF
