:100ECC002020203230253032752D253032752D25DD
:100EDC003032752020200020202020253032753A19
:100EEC00253032753A2530327520202020004941BA
:100EFC0050313557344B35385334204A4A592054E5
:080F0C006573742E200D0A002C
:1009AA00E47838F2784A04F27FC87E001211467859
:1009BA0038E2FF780CE26F700218E27003020A86CE
:1009CA00780DE2FE08E2FF4E7003020A86784E7442
:1009DA00FFF208740EF20874CCF27809E2FD08E21C
:1009EA007851CDF208EDF27813E2FD08E27853CDA2
:1009FA00F208EDF208EEF208EFF27BFE7A0079399E
:100A0A001201027BFE7A007939120F94E4FDFF127B
:100A1A0010357BFE7A0079397D10120F5B784E749F
:100A2A00FFF208740EF20874E3F2780FE2FF08E2AC
:100A3A007851CFF208EFF27811E2FF08E27853CF4B
:100A4A00F208EFF2780BE2FF08E27855CFF208EFEE
:100A5A00F27BFE7A0079391201027BFE7A0079393B
:100A6A00120F947D01E4FF1210357BFE7A0079396A
:100A7A007D10120F5B780B08E27838F2784AE27040
:100A8A00030209B2120A9EEF4E60030209B2784AC3
:040A9A00F20209B2A9
:101122001210517BFF7A0E79FA120F941209AAE477
:03113200FEFF229B
:10101300E4F593F594F591F592F595F596F5B1F51B
:10102300B2F5B3F5B4F5C9F5CAF5CBF5CCF5E1F5F1
:02103300E222B7
:101051001210131210D7D2AC121135D2A912115796
:0B10610043AF40D2AF1211090210F0A3
:0411700030303000EB
:100E290060220075000000000000000000000000C2
:100E390000000000000000000000000000000000A9
:0E0E4900000000000000410074008200000064
:1010D700759850438E01538EFB75D7F375D6FFE491
:0910E7007802F2D299438E102226
:0A0099007802E270FB04F28F992256
:100F94007871EBF208EAF208E9F27871E2FB08E210
:100FA400FA08E2F91204F7601A7871E2FB0808E221
:100FB400F92401F218E2FA3400F21204F7FF1200E5
:040FC4009980D72217
:040D4A007859EFF2F3
:100D4E00087C007DFE7BFF7A1179707E007F041295
:100D5E0004D17859E2FF75F00A84785CE5F0F2EF81
:100D6E0075F0648475F064A4FF7859E2FB7A00C3D1
:100D7E009FFFEA95F0FE7C007D0A12054F785BEF2F
:100D8E00F208E2FFC3EB9FFDEA9400FC18E275F057
:100D9E000AA4FFC3ED9FFFEC95F0FE7C007D64126C
:100DAE00054F785AEFF2785CE22430F218E22430E4
:0F0DBE00F218E22430F27BFE7A00795A020F9489
:03002300020C1CB0
:100C1C00C0E0C0F0C083C082C0D075D000C000C09E
:070C2C0004C005C006C0076B
:100C330030986AC298AF99EF64536004EFB44606E4
:100C43007800E4F208F27800E2FC08E2FD2475F58E
:100C53008274003CF583EFF0ED64204C702190002A
:100C630095E0B40A1A900094E0B40D13900075E077
:100C7300FF64536004EFB446069000747401F07887
:100C830001E22401F218E23400F2E2FE08E2FF7C02
:100C9300007D211205A47800ECF208EDF2309906EC
:060CA300C2997802E4F2A0
:100CA900D007D006D005D004D000D0D0D082D083D0
:050CB900D0F0D0E03294
:100E5700820500008209000082130000820D000055
:100E6700820F000082110000820B00008207000041
:040E770082030000F2
:10113500538E7F5389F0758A0C758CFEC28DD28CC7
:011145002287
:101146007805EEF208EFF27806E2700218E270F720
:011156002276
:02000E00AD073C
:10001000E4FCECC39D500A7FE87E031211460C807D
:01002000F1EE
:0100210022BC
:03000B00020FEFF2
:100FEF00C0E0C0D075D000C0007806E2700218E2F1
:100FFF00600B7806E224FFF218E234FFF2D000D043
:04100F00D0D0E0322B
:1011570053D1DF75D30C75D2FE43D18053AFBF2275
:0300A300020790C1
:10079000C0E0C0F0C083C082C0D075D000C000C02F
:0D07A00001C002C003C004C005C006C007B0
:1007AD00C37804E294E818E294034004E4F208F2FA
:1007BD007804E26432700218E27052782674FEF208
:1007CD00087400F2087413F20874FEF2087400F253
:1007DD0008740DF20874FEF2087400F208740FF23A
:1007ED000874FEF2087400F2087411F20874FEF237
:1007FD00087400F208740BF20874FEF2087400F22B
:10080D00087407F27BFE7A00790912089F7804E2DA
:10081D006426700418E264027052782674FEF208A1
:10082D007400F2087413F20874FEF2087400F208F2
:10083D00740DF20874FEF2087400F208740FF208D9
:10084D0074FEF2087400F2087411F20874FEF208D6
:10085D007400F208740BF20874FEF2087400F208CA
:10086D007407F27BFE7A00790912089F7804E2245E
:07087D0001F218E23400F261
:10088400D007D006D005D004D003D002D001D000C8
:0B089400D0D0D082D083D0F0D0E03272
:060003002F00200D0A0091
:100026007853EDF208EBF2120D4A7BFF7A00790362
:10003600120F947853E2FF120D4A7BFF7A00790380
:10004600120F947854E2FF120D4A7BFF7A0079036F
:10005600120F947855E2FF120D4A7BFF7A0079035E
:10006600120F947856E2FF120D4A7BFF7A0079034D
:10007600120F947857E2FF120D4A7BFF7A0079033C
:10008600120F947858E2FF120D4A7BFF7A00790529
:03009600020F94C2
:0A0663007852EBF208EAF208E9F21F
:10066D00E4FF1204F76453600302078B7852E2FB38
:10067D0008E2FA08E2F9900001120510642E6003F9
:10068D0002078B90001F120510640D600302078B8B
:10069D00900020120510640A600302078B120F945C
:1006AD00E4FFEFC394077480948050507852E2FBBE
:1006BD0008E2FA08E2F975F004EFA42404F582E4E7
:1006CD0035F0F58312051024D075F00AA4FE746A76
:1006DD002FF8EEF27852E2FB08E2FA08E2F975F033
:1006ED0004EFA42405F582E435F0F58312051024FA
:1006FD00D0FE746A2FF8E22EF20F80A6786AE2FF20
:10070D007855E2FB08E2FA08E2F9EF12053D786B45
:10071D00E2FF7858E2FB08E2FA08E2F9EF12053D34
:10072D00786CE2FF785BE2FB08E2FA08E2F9EF127F
:10073D00053D786DE2FF785EE2FB08E2FA08E2F92A
:10074D00EF12053D786EE2FF7861E2FB08E2FA08F0
:10075D00E2F9EF12053D786FE2FF7864E2FB08E203
:10076D00FA08E2F9EF12053D7870E2FF7867E2FBD7
:10077D0008E2FA08E2F9EF12053DE4FEFF227EFFE2
:02078D007FFFEC
:01078F002247
:100A9E0074FFFFFE900074E06401705FF07855748F
:100AAE00FEF2087400F208744BF20874FEF2087439
:100ABE0000F208744CF20874FEF2087400F2087426
:100ACE004DF20874FEF2087400F208744EF20874C7
:100ADE00FEF2087400F208744FF20874FEF2087405
:100AEE0000F2087450F20874FEF2087400F20874F2
:100AFE0051F27B017A007975120663EF4E704D78D4
:100B0E004BE2FF08E2FD08E2FB08E27855F2784F6F
:100B1E00E27856F27850E27857F27851E27858F24D
:100B2E00120026784BE2FF08E2FD08E2FB08E278AD
:100B3E0055F2784FE27856F27850E27857F27851C3
:100B4E00E2047858F2120E7CE4FEFF227EFF7FFF55
:010B5E002274
:1010F0005391F75392F75391EF5392EF5391DF537C
:0911000092DFE4FD7F8E020F1462
:100F1400C29500C29300D29500E4FEEEC394087417
:100F24008094805011EF139294EFC313FFD2930077
:100F3400C293000E80E5E4FEEEC3940874809480AE
:100F44005011ED139294EDC313FDD29300C293009C
:060F54000E80E5C29500CD
:010F5A002274
:100DCD00C29500C29300D29500E4FDEDC394087462
:100DDD008094805011EF139294EFC313FFD29300C0
:100DED00C293000D80E500E4FDEDC394087480947A
:100DFD0080501AA294E433FFC43333335480FCEE95
:100E0D00C3134CFED29300C293000D80DCC295003B
:0B0E1D00D29300C29400D29400AF06F4
:010E280022A7
:0710BD00FD120F1408E2FF11
:1010C400EF75F00A84C454F0FEEF75F00A84E5F07D
:0310D4002EFF22CA
:0C106C00E2FB08E2FA08E2F91205DAFFE4
:0F107800EFC4540F75F00AA4FEEF540F2EFF22A1
:10089F007F8D120DCDE48FF0120605121074E48FC8
:1008AF00F01206057F89120DCD7826E2FB08E2FAD9
:1008BF0008E2F9E48FF0120605782612106C7826FC
:1008CF00E2FB08E2FA08E2F9E48FF01206057F87EF
:1008DF00120DCD08E2FB08E2FA08E2F9E48FF012FC
:1008EF000605782912106C7829E2FB08E2FA08E273
:1008FF00F9E48FF01206057F85120DCD08E2FB0893
:10090F00E2FA08E2F9E48FF0120605782C12106C67
:10091F00782CE2FB08E2FA08E2F9E48FF012060500
:10092F007F83120DCD08E2FB08E2FA08E2F9E48FAB
:10093F00F0120605782F12106C782FE2FB08E2FAFE
:10094F0008E2F9E48FF01206057F81120DCD08E25F
:10095F00FB08E2FA08E2F9E48FF01206057832128A
:10096F00106C7832E2FB08E2FA08E2F9E48FF01239
:10097F0006057F8B120DCD08E2FB08E2FA08E2F9BB
:10098F00E48FF0120605783512106C7835E2FB080B
:0B099F00E2FA08E2F9E48FF00206051E
:100E7C00AC051210C4AD077F8C120F14AF04121006
:100E8C00C4AC07AD077F88120F14AF031210C4ABAC
:100E9C0007AD077F86120F147855E2FF1210C4EFCE
:100EAC00F27F841210BDEFF27F821210BDA907E908
:100EBC00F2FD7F801210BEEFF2E2FD7F8A020F146A
:100B5F00E47815F208F208F208F208F208F208F247
:100B6F0008F208F208F208F208F208F208F2782602
:100B7F0074FEF2087400F2087417F20874FEF2089B
:100B8F007400F2087419F20874FEF2087400F20887
:100B9F00741BF20874FEF2087400F208741DF20858
:100BAF0074FEF2087400F208741FF20874FEF20863
:100BBF007400F2087421F27BFE7A00791512089FF7
:100BCF00781508E2FF1210C4120099781708E2FF97
:100BDF001210C4120099781908E2FF1210C4120003
:100BEF0099781B08E2FF1210C4120099781D08E2D1
:100BFF00FF1210C4120099781F08E2FF1210C412DE
:0D0C0F000099782108E2FF1210C40200993C
:081167007F067ED3DEFEDFFCF3
:01116F00225D
:10108700C2C1C2C4C2C28FA07F017E00121146D264
:0B109700C17F057E00121146C2C1227D
:1010A200C2C1D2C4C2C28FA07F017E00121146D239
:0B10B200C17F057E00121146C2C12262
:101109007F381210877F0C1210877F061210877F95
:09111900011210877F800210878B
:10103500784BEFF2540FF2ED5401FD7003E2800599
:0C104500784BE224404480FF1210872208
:0D0F5B00784BEBF208EAF208E9F208EDF23B
:100F6800E408F2784EE2FF08E2FEC39F501D784B7A
:100F7800E2FB08E2FA08E2F98E8275830012051096
:0B0F8800FF1210A2784FE204F280D8A4
:010F9300223B
:03000000020CBE31
:0C0CBE00787FE4F6D8FD758121020D0559
:10040100E709F608DFFA8046E709F208DFFA803EDD
:1004110088828C83E709F0A3DFFA8032E309F608CA
:10042100DFFA8078E309F208DFFA807088828C8332
:10043100E309F0A3DFFA806489828A83E0A3F608E6
:10044100DFFA805889828A83E0A3F208DFFA804CC0
:1004510080D280FA80C680D4806980F28033801097
:1004610080A680EA809A80A880DA80E280CA803300
:1004710089828A83ECFAE493A3C8C582C8CCC58378
:10048100CCF0A3C8C582C8CCC583CCDFE9DEE78048
:100491000D89828A83E493A3F608DFF9ECFAA9F0C7
:1004A100EDFB2289828A83ECFAE0A3C8C582C8CC1D
:1004B100C583CCF0A3C8C582C8CCC583CCDFEADE36
:1004C100E880DB89828A83E493A3F208DFF980CC98
:1004D10088F0EF60010E4E60C388F0ED2402B40491
:1004E1000050B9F582EB2402B4040050AF23234538
:0604F10082239004517308
:1004F700BB010689828A83E0225002E722BBFE0203
:09050700E32289828A83E4932235
:10051000BB010CE58229F582E5833AF583E02250A0
:1005200006E92582F8E622BBFE06E92582F8E222EA
:0D053000E58229F582E5833AF583E4932204
:10053D00BB010689828A83F0225002F722BBFE019D
:02054D00F32297
:10054F00BC000BBE0029EF8DF084FFADF022E4CC90
:10055F00F875F008EF2FFFEE33FEEC33FCEE9DEC59
:10056F00984005FCEE9DFE0FD5F0E9E4CEFD22ED9F
:10057F00F8F5F0EE8420D21CFEADF075F008EF2FE9
:10058F00FFED33FD4007985006D5F0F222C398FDDA
:05059F000FD5F0EA2277
:1005A400C2D5EC30E709B2D5E4C39DFDE49CFCEE72
:1005B40030E715B2D5E4C39FFFE49EFE12054FC396
:1005C400E49DFDE49CFC800312054F30D507C3E491
:0605D4009FFFE49EFE22E1
:1005DA00BB010A89828A83E0F5F0A3E022500687EC
:1005EA00F009E71922BBFE07E3F5F009E3192289AE
:0B05FA00828A83E493F5F074019322E1
:10060500BB010A89828A83F0E5F0A3F0225006F740
:0F06150009A7F01922BBFE06F3E5F009F319223D
:1000A600E508244EF8E2050822784B300702784E20
:1000B600E475F0011206240204F72000EB7F2ED22D
:1000C600008018EF540F2490D43440D4FF30040B32
:1000D600EF24BFB41A0050032461FFE5096002153E
:1000E60009050CE50C7002050B30070D784BE4751D
:1000F600F001120624EF02053D020FC87403D20771
:100106008003E4C207F508784B120634E4F509F5D6
:100116000BF50CE50960077F201200E180F5750AF2
:10012600FFC201C200C202C203C205C206C2081251
:1001360000AFFF700D3007057F001200F2AF0CAE66
:100146000B22B4255FC2D5C2041200AFFF24D0B47F
:100156000A00501A75F00A780930D50508B6FF016D
:1001660006C6A426F620D5047002D20380D924CF71
:10017600B41A00EF5004C2E5D2040202F1D20180A3
:10018600C6D20080C0D20280BCD2D580BAD2058049
:10019600B47F201200E12002077401B5090040F186
:1001A6001200A6FF1200E1020119D208D2068095BC
:1001B6001200A6FB1200A6FA1200A6F94A4B700618
:1001C60079C27A037BFF20022EE509602A7E008E23
:1001D6008275830012051060060EEE650A70F0C285
:1001E600D5EBC0E0EAC0E0E9C0E0EE120338D0E0AB
:1001F600F9D0E0FAD0E0FB1204F7FF60AAEBC0E00A
:10020600EAC0E0E9C0E01200E1D0E02401F9D0E064
:100216003400FAD0E0FBE50A0460DCD50AD9808711
:100226007BFF7A037934D202809C791080027908A8
:10023600C206C2088008D2D5790A8004790AC2D5D6
:10024600E50A047002F50AE4FAFDFEFF1200A6FCB8
:100256007B082001131200A6FD7B1030000A120055
:10026600A6FE1200A6FF7B20EC3382D592D5501352
:10027600C3E43000069FFFE49EFEE42001039DFDDB
:10028600E49CFCE4CBF8C201EC700CCFCECDCCE8FC
:1002960024F8F870F38017C3EF33FFEE33FEED3327
:1002A600FDEC33FCEB33FB994002FB0FD8E9EB3056
:1002B6000105F8D0E0C448B201C0E00AEC4D4E4F4B
:1002C60078207B0070C2EAB50A0040BCC0E0120389
:1002D6003AD0F0D0E0200104C4C0E0C4B201C0F0BE
:1002E6001200CAD0F0D5F0EB02011912063D01B694
:1002F6005302305801874C01834202344F023C447A
:10030600023C49019C43024255022646022645020A
:0103160026C0
:100317004703E250018B2D018F2E01B22B0193234E
:1003270001B02003CB2A014B48000001AA3F3F3F01
:1003370000790AA2D5200314300509B91002040474
:10034700B9080104A2D520060250010420026892D0
:1003570002B509005034C0E07F203003197F30A276
:100367000272067205500F120391C202C206C2053D
:10037700C2087F30800F300503E9C0E01200E1308A
:100387000503D0E0F9D0E0B509CC3005177F30B9C7
:10039700100C1200E17F583004077F788003B908FA
:1003A700031200E13002057F2D0200E17F202008C3
:1003B700F87F2B2006F322920280CF286E756C6C93
:1003C7002900D2011200A63001F8C201780930D500
:1003D7000108F602014B2D504349581200A6240389
:1003E700B405004001E49003DD931200D2743A1281
:0A03F70000D2D2037509040202309F
:100CCA00021122E493A3F8E493A34003F68001F20D
:100CDA0008DFF48029E493A3F85407240CC8C3332B
:100CEA00C4540F4420C8834004F456800146F6DFFA
:100CFA00E4800B0102040810204080900E29E47E53
:100D0A00019360BCA3FF543F30E509541FFEE493EE
:100D1A00A360010ECF54C025E060A840B8E493A3B5
:100D2A00FAE493A3F8E493A3C8C582C8CAC583CAE0
:100D3A00F0A3C8C582C8CAC583CADFE9DEE780BE98
:010E7B000076
:10062400FAE2FB0808E2F925F0F218E2CA3AF222EB
:09063400EBF208EAF208E9F222F7
:10063D00D083D082F8E4937012740193700DA3A34C
:10064D0093F8740193F5828883E473740293686060
:06065D00EFA3A3A380DF60
:100FC800EFB40A07740D120FD3740A309811A89958
:100FD800B8130CC2983098FDA899C298B811F63089
:070FE80099FDC299F5992261
:00000001FF
