:1009EA00E4F593F594F591F592F595F596F5B1F54B
:1009FA00B2F5B3F5B4F5C9F5CAF5CBF5CCF5E1F521
:020A0A00E222E6
:100A8A001209EA120A2ED2AC120AAED2A9D2AF02C7
:020A9A00092130
:040AE2003030300080
:1008B9006022004800000000000000000000000065
:1008C900000000000000000000000000000000001F
:0E08D900000000000000410047008200000007
:100A2E00759850438E01538EFB75D7F375D6FFE440
:090A3E007802F2D299438E1022D5
:0A0ACE007802E270FB04F28F992217
:100885007844EBF208EAF208E9F27844E2FB08E280
:10089500FA08E2F912011C601A7844E2FB0808E242
:1008A500F92401F218E2FA3400F212011CFF120ACF
:0408B500CE80D722F8
:0407B9007821EFF2C2
:1007BD00087C007DFE7BFF7A0A79E27E007F0412C1
:1007CD0000F67821E2FF75F00A847824E5F0F2EF67
:1007DD0075F0648475F064A4FF7821E2FB7A00C3A0
:1007ED009FFFEA95F0FE7C007D0A1201747823EFDD
:1007FD00F208E2FFC3EB9FFDEA9400FC18E275F0EE
:10080D000AA4FFC3ED9FFFEC95F0FE7C007D641202
:10081D0001747822EFF27824E22430F218E22430C9
:0F082D00F218E22430F27BFE7A0079220208856D
:030023000205656E
:10056500C0E0C0F0C083C082C0D075D000C000C05C
:0705750004C005C006C00729
:10057C0030986AC298AF99EF64536004EFB44606A2
:10058C007800E4F208F27800E2FC08E2FD2448F579
:10059C008274003CF583EFF0ED64204C70219000E8
:1005AC0068E0B40A1A900067E0B40D13900048E0BC
:1005BC00FF64536004EFB446069000477401F07872
:1005CC0001E22401F218E23400F2E2FE08E2FF7CC0
:1005DC00007D211201C97800ECF208EDF230990689
:0605EC00C2997802E4F25E
:1005F200D007D006D005D004D000D0D0D082D0838E
:05060200D0F0D0E03251
:0508E70042006A000060
:100AAE00538E7F5389F0758A0C758CFEC28DD28C55
:010ABE002215
:100A770090006AEEF0A3EFF090006AE07002A3E046
:030A870070F622E4
:02000E00AD073C
:10001000E4FCECC39D500A7FE87E03120A770C8053
:01002000F1EE
:0100210022BC
:03000B0002095295
:10095200C0E0C083C082C0D090006AE07002A3E011
:10096200600E90006BE024FFF090006AE034FFF02C
:09097200D0D0D082D083D0E03255
:0600030000007F03DFFE98
:0100090022D4
:0F0ABF00D290D291120003C290120003C2912272
:0A0AD800C290D291120003D29022C6
:0208ED00AE0754
:1008EF00E4FDEDC39408748094805025EE30E70446
:1008FF00D2908002C290120003D291120003C291D3
:10090F00ED64077002D290EE25E0FE1200030D8019
:01091F00D106
:0109200022B4
:1009A100E4FEFDEDC39408748094805015EE25E0BB
:1009B100FED2911200033090010EC2911200030D7C
:0409C10080E1AF061C
:0109C500220F
:0B097B001208ED120986AF041208ED0F
:10098600D290120003D2911200033090047E0180AF
:0A09960002E4FEC291120003AF0656
:0109A0002234
:030A9C00120A0C2F
:0F0A9F00EFC4540F75F00AA4FEEF540F2EFF2280
:060A4700120A6008E2FF44
:100A4D00EF75F00A84C454F0FEEF75F00A84E5F0FA
:030A5D002EFF2247
:100A6000AC05AB07120ABF7FD01208ED120986AFA2
:070A70000312097B020AD802
:020A0C00AC0735
:100A0E00120ABF7FD012097B120ABF7FD11208EDE6
:0F0A1E001209861209A1AE07120AD8AF067E0090
:010A2D0022A6
:10092100E4FD7F0E120A60E4FDFC1200030DBD0020
:10093100010CED64C84C70F2E4FD7F0F120A60E413
:10094100FCFD1200030DBD00010CED64C84C70F2FA
:010951002283
:10083C00AA03A905120A4DAD077F06120A60AF0183
:10084C00120A4DAD077F05120A60AF02120A4DADB8
:10085C00077F04120A607828E2FF120A4DAD077F69
:10086C0002120A47AD077F01120A47AD07E4FF12D7
:09087C000A47AD077F03020A6080
:100730007F06120A9CEF1201627F05120A9C782143
:10074000E2FB08E2FA08E2F9EF1201627F04120A02
:100750000C120A9F08E2FB08E2FA08E2F9EF120124
:10076000627F02120A0CEF543FFF120A9F08E2FB5D
:1007700008E2FA08E2F9EF1201627F01120A0C1294
:100780000A9F08E2FB08E2FA08E2F9EF120162E4CC
:10079000FF120A0C120A9F08E2FB08E2FA08E2F9CB
:1007A000EF1201627F03120A0C120A9F08E2FB0893
:0907B000E2FA08E2F9EF0201622D
:0A0262007825EBF208EAF208E9F251
:10026C00E4FF12011C6453600302038A7825E2FB4D
:10027C0008E2FA08E2F9900001120135642E6003DD
:10028C0002038A90001F120135640D600302038A79
:10029C00900020120135640A600302038A1208855B
:1002AC00E4FFEFC394077480948050507825E2FBF0
:1002BC0008E2FA08E2F975F004EFA42404F582E4EC
:1002CC0035F0F58312013524D075F00AA4FE743D87
:1002DC002FF8EEF27825E2FB08E2FA08E2F975F065
:1002EC0004EFA42405F582E435F0F58312013524DE
:1002FC00D0FE743D2FF8E22EF20F80A6783DE2FF7F
:10030C007828E2FB08E2FA08E2F9EF120162783E83
:10031C00E2FF782BE2FB08E2FA08E2F9EF12016245
:10032C00783FE2FF782EE2FB08E2FA08E2F9EF12DE
:10033C0001627840E2FF7831E2FB08E2FA08E2F968
:10034C00EF1201627841E2FF7834E2FB08E2FA082E
:10035C00E2F9EF1201627842E2FF7837E2FB08E241
:10036C00FA08E2F9EF1201627843E2FF783AE2FB15
:10037C0008E2FA08E2F9EF120162E4FEFF227EFFC6
:02038C007FFFF1
:01038E00224C
:1006070074FFFFFE900047E06401705FF078287484
:10061700FEF2087400F208741EF20874FEF2087401
:1006270000F208741FF20874FEF2087400F20874EE
:1006370020F20874FEF2087400F2087421F20874BC
:10064700FEF2087400F2087422F20874FEF20874CD
:1006570000F2087423F20874FEF2087400F20874BA
:1006670024F27B017A007948120262EF4E702978F2
:100677001EE2FF08E2FD08E2FB08E27828F2782292
:10068700E27829F27823E2782AF27824E204782BB8
:0C069700F212083CE4FEFF227EFF7FFF11
:0106A3002234
:1009C6002F00200D0A00494150313557343133414B
:1009D6005320445333323331534E20546573742EAF
:0409E600200D0A00D6
:10049300781EEBF208EAF208E9F2781EE2FB08E2C2
:1004A300FA08E2F990000A12022AFF1207B97BFF49
:1004B3007A0979C6120885781EE2FB08E2FA08E297
:1004C300F990000812022AFF1207B97BFF7A097913
:1004D300C6120885781EE2FB08E2FA08E2F99000EA
:1004E3000612022AFF1207B97BFF7A0979C612089E
:1004F30085781EE2FB08E2FA08E2F9900004120292
:100503002AFF1207B97BFF7A0979C6120885781E7C
:10051300E2FB08E2FA08E2F990000212022AFF1253
:1005230007B97BFF7A0979C6120885781EE2FB08B2
:10053300E2FA08E2F91201FFFF1207B97BFF7A0919
:1005430079C6120885781EE2FB08E2FA08E2F99000
:10055300000C12022AFF1207B97BFF7A0979C8023D
:02056300088509
:10038F0078037413F2087406F2087419F2087414DF
:10039F00F2087406F2E408F2087402F2781C743C56
:1003AF00F2087401F2120A8A7BFF7A0979CC1208DB
:1003BF00857FC87E00120A77782174FEF2087400D8
:1003CF00F2087404F20874FEF2087400F20874055F
:1003DF00F20874FEF2087400F2087406F20874FE54
:1003EF00F2087400F2087407F20874FEF208740041
:1003FF00F2087408F20874FEF2087400F208740927
:10040F00F27BFE7A0079031207307808E2FF781C3E
:10041F00E26F60587803E2FD7814E4F208EDF278A9
:10042F0004E2FD7812E4F208EDF27805E2FD7810AF
:10043F00E4F208EDF27806E2FD780EE4F208EDF250
:10044F007807E2FD780CE4F208EDF2780AE4F2089E
:10045F00EFF27809E2FF7816E4F208EFF27BFE7A0A
:10046F0000790A1204937808E2781CF2781DE27082
:10047F00030203C0120607EF4E60030203C0781D8C
:04048F00F20203C0B2
:030000000206A451
:0C06A400787FE4F6D8FD7581070206EBB4
:10002600E709F608DFFA8046E709F208DFFA803EBC
:1000360088828C83E709F0A3DFFA8032E309F608A9
:10004600DFFA8078E309F208DFFA807088828C8311
:10005600E309F0A3DFFA806489828A83E0A3F608C5
:10006600DFFA805889828A83E0A3F208DFFA804C9F
:1000760080D280FA80C680D4806980F28033801076
:1000860080A680EA809A80A880DA80E280CA8033DF
:1000960089828A83ECFAE493A3C8C582C8CCC58357
:1000A600CCF0A3C8C582C8CCC583CCDFE9DEE78027
:1000B6000D89828A83E493A3F608DFF9ECFAA9F0A6
:1000C600EDFB2289828A83ECFAE0A3C8C582C8CCFC
:1000D600C583CCF0A3C8C582C8CCC583CCDFEADE15
:1000E600E880DB89828A83E493A3F208DFF980CC77
:1000F60088F0EF60010E4E60C388F0ED2402B40470
:100106000050B9F582EB2402B4040050AF23234516
:06011600822390007673C5
:10011C00BB010689828A83E0225002E722BBFE02E1
:09012C00E32289828A83E4932214
:10013500BB010CE58229F582E5833AF583E022507F
:1001450006E92582F8E622BBFE06E92582F8E222C9
:0D015500E58229F582E5833AF583E49322E3
:10016200BB010689828A83F0225002F722BBFE017C
:02017200F32276
:10017400BC000BBE0029EF8DF084FFADF022E4CC6F
:10018400F875F008EF2FFFEE33FEEC33FCEE9DEC38
:10019400984005FCEE9DFE0FD5F0E9E4CEFD22ED7E
:1001A400F8F5F0EE8420D21CFEADF075F008EF2FC8
:1001B400FFED33FD4007985006D5F0F222C398FDB9
:0501C4000FD5F0EA2256
:1001C900C2D5EC30E709B2D5E4C39DFDE49CFCEE51
:1001D90030E715B2D5E4C39FFFE49EFE120174C354
:1001E900E49DFDE49CFC800312017430D507C3E44F
:0601F9009FFFE49EFE22C0
:1001FF00BB010A89828A83E0F5F0A3E022500687CB
:10020F00F009E71922BBFE07E3F5F009E31922898C
:0B021F00828A83E493F5F074019322BF
:10022A00BB0110E58229F582E5833AF583E0F5F012
:10023A00A3E0225009E92582F886F008E622BBFEEF
:10024A000AE92582F8E2F5F008E222E5832AF58335
:08025A00E993F5F0A3E99322FA
:1006B00002038FE493A3F8E493A34003F68001F2CE
:1006C00008DFF48029E493A3F85407240CC8C3334B
:1006D000C4540F4420C8834004F456800146F6DF1A
:1006E000E4800B01020408102040809008B9E47EE9
:1006F000019360BCA3FF543F30E509541FFEE4930F
:10070000A360010ECF54C025E060A840B8E493A3D5
:10071000FAE493A3F8E493A3C8C582C8CAC583CA00
:10072000F0A3C8C582C8CAC583CADFE9DEE780BEB8
:0108EC00000B
:00000001FF
