:100D2D00E4F593F594F591F592F595F596F5B1F504
:100D3D00B2F5B3F5B4F5C9F5CAF5CBF5CCF5E1F5DA
:020D4D00E222A0
:10000E00120D2D120DA6D2AC120E41D2A9D2AF12E4
:05001E000C64020DD886
:040E750030303000E9
:100BFC006022005000000000000000000000000017
:100C0C0000000000000000000000000000000000D8
:0E0C1C0000000000000041004F0082000000B8
:100DA600759850438E01538EFB75D7F375D6FFE4C5
:090DB6007802F2D299438E10225A
:0A0E61007802E270FB04F28F992280
:100BC800784CEBF208EAF208E9F2784CE2FB08E22A
:100BD800FA08E2F912011C601A784CE2FB0808E2F4
:100BE800F92401F218E2FA3400F212011CFF120E85
:040BF8006180D7221F
:040A09007829EFF267
:100A0D00087C007DFE7BFF7A0E79757E007F0412D7
:100A1D0000F67829E2FF75F00A84782CE5F0F2EF04
:100A2D0075F0648475F064A4FF7829E2FB7A00C345
:100A3D009FFFEA95F0FE7C007D0A120174782BEF82
:100A4D00F208E2FFC3EB9FFDEA9400FC18E275F09B
:100A5D000AA4FFC3ED9FFFEC95F0FE7C007D6412B0
:100A6D000174782AEFF2782CE22430F218E2243067
:0F0A7D00F218E22430F27BFE7A00792A020BC8CD
:030023000208527E
:10085200C0E0C0F0C083C082C0D075D000C000C06C
:0708620004C005C006C00739
:1008690030986AC298AF99EF64536004EFB44606B2
:100879007800E4F208F27800E2FC08E2FD2450F581
:100889008274003CF583EFF0ED64204C70219000F8
:1008990070E0B40A1A90006FE0B40D13900050E0B4
:1008A900FF64536004EFB4460690004F7401F0787A
:1008B90001E22401F218E23400F2E2FE08E2FF7CD0
:1008C900007D211201C97800ECF208EDF230990699
:0608D900C2997802E4F26E
:1008DF00D007D006D005D004D000D0D0D082D0839E
:0508EF00D0F0D0E03262
:050C2A00420072000011
:100E4100538E7F5389F0758A0C758CFEC28DD28CBE
:010E5100227E
:100E1C00900072EEF0A3EFF0900072E07002A3E08D
:030E2C0070F6223B
:020E0800AD0734
:100E0A00E4FCECC39D500A7FE87E03120E1C0C80A2
:010E1A00F1E6
:010E1B0022B4
:03000B00020C954F
:100C9500C0E0C083C082C0D0900072E07002A3E0C3
:100CA500600E900073E024FFF0900072E034FFF0D6
:090CB500D0D0D082D083D0E0320F
:0600030000007F03DFFE98
:0100090022D4
:0F0E5200D290D291120003C290120003C29122DB
:0A0E6B00C290D291120003D290222F
:020C3000AE070D
:100C3200E4FDEDC39408748094805025EE30E704FF
:100C4200D2908002C290120003D291120003C2918C
:100C5200ED64077002D290EE25E0FE1200030D80D3
:010C6200D1C0
:010C6300226E
:100CE400E4FEFDEDC39408748094805015EE25E075
:100CF400FED2911200033090010EC2911200030D36
:040D040080E1AF06D5
:010D080022C8
:0B0CBE00120C30120CC9AF04120C30F5
:100CC900D290120003D2911200033090047E018069
:0A0CD90002E4FEC291120003AF0610
:010CE30022EE
:030E2F00120D4F52
:0F0E3200EFC4540F75F00AA4FEEF540F2EFF22E9
:060DBF00120DF108E2FF35
:100DC500EF75F00A84C454F0FEEF75F00A84E5F07F
:030DD5002EFF22CC
:100DF100AC05AB07120E527FD0120C30120CC9AFEA
:070E010003120CBE020E6B90
:020D4F00AC07EF
:100D5100120E527FD0120CBE120E527FD1120C30E5
:0F0D6100120CC9120CE4AE07120E6BAF067E0027
:010D70002260
:100C6400E4FD7F0E120DF1E4FDFC1200030DBD0046
:100C7400010CED64C84C70F2E4FD7F0F120DF1E439
:100C8400FCFD1200030DBD00010CED64C84C70F2B4
:010C9400223D
:100B3800AA03A905120DC5AD077F06120DF1AF0175
:100B4800120DC5AD077F05120DF1AF02120DC5AD2F
:100B5800077F04120DF17830E2FF120DC5AD077F53
:100B680002120DBFAD077F01120DBFAD07E4FF12E2
:090B78000DBFAD077F03020DF172
:100980007F06120E2FEF1201627F05120E2F7829BB
:10099000E2FB08E2FA08E2F9EF1201627F04120DAD
:1009A0004F120E3208E2FB08E2FA08E2F9EF1201F8
:1009B000627F02120D4FEF543FFF120E3208E2FB2E
:1009C00008E2FA08E2F9EF1201627F01120D4F12FC
:1009D0000E3208E2FB08E2FA08E2F9EF120162E4E3
:1009E000FF120D4F120E3208E2FB08E2FA08E2F99C
:1009F000EF1201627F03120D4F120E3208E2FB0864
:090A0000E2FA08E2F9EF020162DA
:0A03E200782DEBF208EAF208E9F2C8
:1003EC00E4FF12011C6453600302050A782DE2FB42
:1003FC0008E2FA08E2F9900001120135642E60035C
:10040C0002050A90001F120135640D600302050AF3
:10041C00900020120135640A600302050A120BC811
:10042C00E4FFEFC39407748094805050782DE2FB66
:10043C0008E2FA08E2F975F004EFA42404F582E46A
:10044C0035F0F58312013524D075F00AA4FE7445FD
:10045C002FF8EEF2782DE2FB08E2FA08E2F975F0DB
:10046C0004EFA42405F582E435F0F583120135245C
:10047C00D0FE74452FF8E22EF20F80A67845E2FFED
:10048C007830E2FB08E2FA08E2F9EF1201627846F2
:10049C00E2FF7833E2FB08E2FA08E2F9EF120162BC
:1004AC007847E2FF7836E2FB08E2FA08E2F9EF124D
:1004BC0001627848E2FF7839E2FB08E2FA08E2F9D7
:1004CC00EF1201627849E2FF783CE2FB08E2FA089D
:1004DC00E2F9EF120162784AE2FF783FE2FB08E2B0
:1004EC00FA08E2F9EF120162784BE2FF7842E2FB84
:1004FC0008E2FA08E2F9EF120162E4FEFF227EFF45
:02050C007FFF6F
:01050E0022CA
:1006E80074FFFFFE90004FE06401705FF078307493
:1006F800FEF2087400F2087426F20874FEF2087418
:1007080000F2087427F20874FEF2087400F2087404
:1007180028F20874FEF2087400F2087429F20874CA
:10072800FEF2087400F208742AF20874FEF20874E3
:1007380000F208742BF20874FEF2087400F20874D0
:100748002CF27B017A0079501203E2EF4E704E785A
:1007580026E2FF08E2FD08E2FB08E27830F2782A98
:10076800E27831F2782BE27832F2782CE2047833AE
:10077800F2120B387826E2FF08E2FD08E2FB08E2F5
:100788007830F2782AE27831F2782BE27832F2780F
:100798002CE2047833F2120AE8E4FEFF227EFF7F9F
:0107A800FF51
:0107A900222D
:100DD8005391F75392F75391EF5392EF5391DF5397
:090DE80092DFE4FD7F8E020B8115
:100B8100C2B500C2B700D2B500E4FEEEC39408744A
:100B91008094805011EF1392B6EFC313FFD2B700C8
:100BA100C2B7000E80E5E4FEEEC394087480948021
:100BB1005011ED1392B6EDC313FDD2B700C2B700C9
:060BC1000E80E5C2B50044
:010BC700220B
:100A8C00C2B500C2B700D2B500E4FDEDC394087442
:100A9C008094805011EF1392B6EFC313FFD2B700BE
:100AAC00C2B7000D80E500E4FDEDC394087480949A
:100ABC0080501AA2B6E433FFC43333335480FCEEB7
:100ACC00C3134CFED2B700C2B7000D80DCC2B50018
:0B0ADC00D2B700C2B600D2B600AF06D1
:010AE70022EC
:070D8C00FD120B8108E2FFDC
:100D9300EF75F00A84C454F0FEEF75F00A84E5F0B1
:030DA3002EFF22FE
:0C0D7100E2FB08E2FA08E2F912011CFFA4
:0F0D7D00EFC4540F75F00AA4FEEF540F2EFF229F
:10050F007F8D120A8CEF120162120D79EF120162C8
:10051F007F89120A8C7829E2FB08E2FA08E2F9EFE8
:10052F001201627829120D717829E2FB08E2FA08AC
:10053F00E2F9EF1201627F87120A8C08E2FB08E2F0
:10054F00FA08E2F9EF120162782C120D71782CE2A1
:10055F00FB08E2FA08E2F9EF1201627F85120A8CBA
:10056F0008E2FB08E2FA08E2F9EF120162782F12B3
:10057F000D71782FE2FB08E2FA08E2F9EF1201623F
:10058F007F83120A8C08E2FB08E2FA08E2F9EF1205
:10059F0001627832120D717832E2FB08E2FA08E25A
:1005AF00F9EF1201627F81120A8C08E2FB08E2FA6E
:1005BF0008E2F9EF1201627835120D717835E2FB1E
:1005CF0008E2FA08E2F9EF1201627F8B120A8C0837
:1005DF00E2FB08E2FA08E2F9EF1201627838120D35
:0F05EF00717838E2FB08E2FA08E2F9EF020162E4
:100AE800AC05120D93AD077F8C120B81AF04120D6C
:100AF80093AC07AD077F88120B81AF03120D93AB40
:100B080007AD077F86120B817830E2FF120D93EF55
:100B1800F27F84120D8CEFF27F82120D8CA907E907
:100B2800F2FD7F80120D8DEFF2E2FD7F8A020B81CC
:1007AA00E47803F208F208F208F208F208F208F212
:1007BA00782974FEF2087400F2087404F20874FED0
:1007CA00F2087400F2087405F20874FEF208740064
:1007DA00F2087406F20874FEF2087400F20874074C
:1007EA00F20874FEF2087400F2087408F20874FE43
:1007FA00F2087400F2087409F27BFE7A0079031297
:10080A00050F7803E2FF120D93120E617804E2FFDE
:10081A00120D93120E617805E2FF120D93120E610A
:10082A007806E2FF120D93120E617807E2FF120DAD
:10083A0093120E617808E2FF120D93120E61780985
:08084A00E2FF120D93020E61A2
:100D09002F00200D0A004941503135573431334104
:100D19005320445333323331534E20546573742E68
:040D2900200D0A008F
:1005FE007812E4F208EFF27811E2FF781EE4F208C6
:08060E00EFF27BFE7A00791285
:100616007826EBF208EAF208E9F27826E2FB08E22D
:10062600FA08E2F990000A12022AFF120A097BFF71
:100636007A0D7909120BC87826E2FB08E2FA08E27D
:10064600F990000812022AFF120A097BFF7A0D7937
:1006560009120BC87826E2FB08E2FA08E2F99000D4
:100666000612022AFF120A097BFF7A0D7909120B7C
:10067600C87826E2FB08E2FA08E2F99000041202C2
:100686002AFF120A097BFF7A0D7909120BC8782610
:10069600E2FB08E2FA08E2F990000212022AFF12CF
:1006A6000A097BFF7A0D7909120BC87826E2FB0846
:1006B600E2FA08E2F91201FFFF120A097BFF7A0D3E
:1006C6007909120BC87826E2FB08E2FA08E2F990EB
:1006D600000C12022AFF120A097BFF7A0D790B021F
:0206E6000BC83F
:10026200780A7413F2087406F2087419F208741406
:10027200F2087406F2E408F278117402F278247437
:100282003CF2087401F212000E7BFF7A0D790F1214
:100292000BC87FC87E00120E1C782974FEF2087407
:1002A20000F208740BF20874FEF2087400F208748B
:1002B2000CF20874FEF2087400F208740DF208746D
:1002C200FEF2087400F208740EF20874FEF208746A
:1002D20000F208740FF20874FEF2087400F2087457
:1002E20011F27BFE7A00790A120980780FE2FF7818
:1002F20024E26F70030203CA780AE2FD781CE4F27A
:1003020008EDF2780BE2FD781AE4F208EDF2780CCF
:10031200E2FD7818E4F208EDF2780DE2FD7816E4D9
:10032200F208EDF2780EE2FD7814E4F208EDF21232
:1003320005FE782974FEF2087400F208740BF208C4
:1003420074FEF2087400F208740CF20874FEF208EB
:100352007400F208740DF20874FEF2087400F208D8
:10036200740EF20874FEF2087400F2087410F208B7
:1003720074FEF2087400F2087411F27BFE7A0079BE
:100382000A12050F780AE2FF781CE4F208EFF2780D
:100392000BE2FF781AE4F208EFF2780CE2FF781829
:1003A200E4F208EFF2780DE2FF7816E4F208EFF2D9
:1003B200780EE2FF7814E4F208EFF27810E2FF120E
:1003C20005FE780FE27824F27825E27003020294A7
:1003D2001206E8EF4E60030202947825F2020294BC
:030000000208F4FF
:0C08F400787FE4F6D8FD75810702093B0F
:10002600E709F608DFFA8046E709F208DFFA803EBC
:1000360088828C83E709F0A3DFFA8032E309F608A9
:10004600DFFA8078E309F208DFFA807088828C8311
:10005600E309F0A3DFFA806489828A83E0A3F608C5
:10006600DFFA805889828A83E0A3F208DFFA804C9F
:1000760080D280FA80C680D4806980F28033801076
:1000860080A680EA809A80A880DA80E280CA8033DF
:1000960089828A83ECFAE493A3C8C582C8CCC58357
:1000A600CCF0A3C8C582C8CCC583CCDFE9DEE78027
:1000B6000D89828A83E493A3F608DFF9ECFAA9F0A6
:1000C600EDFB2289828A83ECFAE0A3C8C582C8CCFC
:1000D600C583CCF0A3C8C582C8CCC583CCDFEADE15
:1000E600E880DB89828A83E493A3F208DFF980CC77
:1000F60088F0EF60010E4E60C388F0ED2402B40470
:100106000050B9F582EB2402B4040050AF23234516
:06011600822390007673C5
:10011C00BB010689828A83E0225002E722BBFE02E1
:09012C00E32289828A83E4932214
:10013500BB010CE58229F582E5833AF583E022507F
:1001450006E92582F8E622BBFE06E92582F8E222C9
:0D015500E58229F582E5833AF583E49322E3
:10016200BB010689828A83F0225002F722BBFE017C
:02017200F32276
:10017400BC000BBE0029EF8DF084FFADF022E4CC6F
:10018400F875F008EF2FFFEE33FEEC33FCEE9DEC38
:10019400984005FCEE9DFE0FD5F0E9E4CEFD22ED7E
:1001A400F8F5F0EE8420D21CFEADF075F008EF2FC8
:1001B400FFED33FD4007985006D5F0F222C398FDB9
:0501C4000FD5F0EA2256
:1001C900C2D5EC30E709B2D5E4C39DFDE49CFCEE51
:1001D90030E715B2D5E4C39FFFE49EFE120174C354
:1001E900E49DFDE49CFC800312017430D507C3E44F
:0601F9009FFFE49EFE22C0
:1001FF00BB010A89828A83E0F5F0A3E022500687CB
:10020F00F009E71922BBFE07E3F5F009E31922898C
:0B021F00828A83E493F5F074019322BF
:10022A00BB0110E58229F582E5833AF583E0F5F012
:10023A00A3E0225009E92582F886F008E622BBFEEF
:10024A000AE92582F8E2F5F008E222E5832AF58335
:08025A00E993F5F0A3E99322FA
:10090000020262E493A3F8E493A34003F68001F2A9
:1009100008DFF48029E493A3F85407240CC8C333F8
:10092000C4540F4420C8834004F456800146F6DFC7
:10093000E4800B0102040810204080900BFCE47E50
:10094000019360BCA3FF543F30E509541FFEE493BC
:10095000A360010ECF54C025E060A840B8E493A383
:10096000FAE493A3F8E493A3C8C582C8CAC583CAAE
:10097000F0A3C8C582C8CAC583CADFE9DEE780BE66
:010C2F0000C4
:00000001FF
